{
  "_format": "hh-sol-artifact-1",
  "contractName": "MathNFT",
  "sourceName": "contracts/MathNFT.sol",
  "abi": [
    {
      "inputs": [],
      "stateMutability": "nonpayable",
      "type": "constructor"
    },
    {
      "anonymous": false,
      "inputs": [
        {
          "indexed": true,
          "internalType": "address",
          "name": "owner",
          "type": "address"
        },
        {
          "indexed": true,
          "internalType": "address",
          "name": "approved",
          "type": "address"
        },
        {
          "indexed": true,
          "internalType": "uint256",
          "name": "tokenId",
          "type": "uint256"
        }
      ],
      "name": "Approval",
      "type": "event"
    },
    {
      "anonymous": false,
      "inputs": [
        {
          "indexed": true,
          "internalType": "address",
          "name": "owner",
          "type": "address"
        },
        {
          "indexed": true,
          "internalType": "address",
          "name": "operator",
          "type": "address"
        },
        {
          "indexed": false,
          "internalType": "bool",
          "name": "approved",
          "type": "bool"
        }
      ],
      "name": "ApprovalForAll",
      "type": "event"
    },
    {
      "anonymous": false,
      "inputs": [
        {
          "indexed": false,
          "internalType": "address",
          "name": "sender",
          "type": "address"
        },
        {
          "indexed": false,
          "internalType": "uint256",
          "name": "tokenId",
          "type": "uint256"
        }
      ],
      "name": "NftMinted",
      "type": "event"
    },
    {
      "anonymous": false,
      "inputs": [
        {
          "indexed": true,
          "internalType": "address",
          "name": "from",
          "type": "address"
        },
        {
          "indexed": true,
          "internalType": "address",
          "name": "to",
          "type": "address"
        },
        {
          "indexed": true,
          "internalType": "uint256",
          "name": "tokenId",
          "type": "uint256"
        }
      ],
      "name": "Transfer",
      "type": "event"
    },
    {
      "inputs": [
        {
          "internalType": "address",
          "name": "to",
          "type": "address"
        },
        {
          "internalType": "uint256",
          "name": "tokenId",
          "type": "uint256"
        }
      ],
      "name": "approve",
      "outputs": [],
      "stateMutability": "nonpayable",
      "type": "function"
    },
    {
      "inputs": [
        {
          "internalType": "address",
          "name": "owner",
          "type": "address"
        }
      ],
      "name": "balanceOf",
      "outputs": [
        {
          "internalType": "uint256",
          "name": "",
          "type": "uint256"
        }
      ],
      "stateMutability": "view",
      "type": "function"
    },
    {
      "inputs": [
        {
          "internalType": "uint256",
          "name": "tokenId",
          "type": "uint256"
        }
      ],
      "name": "getApproved",
      "outputs": [
        {
          "internalType": "address",
          "name": "",
          "type": "address"
        }
      ],
      "stateMutability": "view",
      "type": "function"
    },
    {
      "inputs": [
        {
          "internalType": "address",
          "name": "owner",
          "type": "address"
        },
        {
          "internalType": "address",
          "name": "operator",
          "type": "address"
        }
      ],
      "name": "isApprovedForAll",
      "outputs": [
        {
          "internalType": "bool",
          "name": "",
          "type": "bool"
        }
      ],
      "stateMutability": "view",
      "type": "function"
    },
    {
      "inputs": [],
      "name": "makeMathNFT",
      "outputs": [],
      "stateMutability": "nonpayable",
      "type": "function"
    },
    {
      "inputs": [],
      "name": "mintCount",
      "outputs": [
        {
          "internalType": "uint256",
          "name": "",
          "type": "uint256"
        }
      ],
      "stateMutability": "view",
      "type": "function"
    },
    {
      "inputs": [],
      "name": "name",
      "outputs": [
        {
          "internalType": "string",
          "name": "",
          "type": "string"
        }
      ],
      "stateMutability": "view",
      "type": "function"
    },
    {
      "inputs": [
        {
          "internalType": "uint256",
          "name": "tokenId",
          "type": "uint256"
        }
      ],
      "name": "ownerOf",
      "outputs": [
        {
          "internalType": "address",
          "name": "",
          "type": "address"
        }
      ],
      "stateMutability": "view",
      "type": "function"
    },
    {
      "inputs": [
        {
          "internalType": "uint256",
          "name": "tokenId",
          "type": "uint256"
        },
        {
          "internalType": "string",
          "name": "wordArray",
          "type": "string"
        }
      ],
      "name": "pickRandomWord",
      "outputs": [
        {
          "internalType": "string",
          "name": "",
          "type": "string"
        }
      ],
      "stateMutability": "view",
      "type": "function"
    },
    {
      "inputs": [
        {
          "internalType": "address",
          "name": "from",
          "type": "address"
        },
        {
          "internalType": "address",
          "name": "to",
          "type": "address"
        },
        {
          "internalType": "uint256",
          "name": "tokenId",
          "type": "uint256"
        }
      ],
      "name": "safeTransferFrom",
      "outputs": [],
      "stateMutability": "nonpayable",
      "type": "function"
    },
    {
      "inputs": [
        {
          "internalType": "address",
          "name": "from",
          "type": "address"
        },
        {
          "internalType": "address",
          "name": "to",
          "type": "address"
        },
        {
          "internalType": "uint256",
          "name": "tokenId",
          "type": "uint256"
        },
        {
          "internalType": "bytes",
          "name": "_data",
          "type": "bytes"
        }
      ],
      "name": "safeTransferFrom",
      "outputs": [],
      "stateMutability": "nonpayable",
      "type": "function"
    },
    {
      "inputs": [
        {
          "internalType": "address",
          "name": "operator",
          "type": "address"
        },
        {
          "internalType": "bool",
          "name": "approved",
          "type": "bool"
        }
      ],
      "name": "setApprovalForAll",
      "outputs": [],
      "stateMutability": "nonpayable",
      "type": "function"
    },
    {
      "inputs": [
        {
          "internalType": "bytes4",
          "name": "interfaceId",
          "type": "bytes4"
        }
      ],
      "name": "supportsInterface",
      "outputs": [
        {
          "internalType": "bool",
          "name": "",
          "type": "bool"
        }
      ],
      "stateMutability": "view",
      "type": "function"
    },
    {
      "inputs": [],
      "name": "symbol",
      "outputs": [
        {
          "internalType": "string",
          "name": "",
          "type": "string"
        }
      ],
      "stateMutability": "view",
      "type": "function"
    },
    {
      "inputs": [
        {
          "internalType": "uint256",
          "name": "tokenId",
          "type": "uint256"
        }
      ],
      "name": "tokenURI",
      "outputs": [
        {
          "internalType": "string",
          "name": "",
          "type": "string"
        }
      ],
      "stateMutability": "view",
      "type": "function"
    },
    {
      "inputs": [
        {
          "internalType": "address",
          "name": "from",
          "type": "address"
        },
        {
          "internalType": "address",
          "name": "to",
          "type": "address"
        },
        {
          "internalType": "uint256",
          "name": "tokenId",
          "type": "uint256"
        }
      ],
      "name": "transferFrom",
      "outputs": [],
      "stateMutability": "nonpayable",
      "type": "function"
    }
  ],
  "bytecode": "0x608060405260405180610160016040528061012f81526020016200444561012f9139600890805190602001906200003892919062000683565b506040518060c001604052806040518060400160405280600a81526020017f53617469736679696e670000000000000000000000000000000000000000000081525081526020016040518060400160405280600881526020017f47756c6c69626c6500000000000000000000000000000000000000000000000081525081526020016040518060400160405280600981526020017f4d616b657368696674000000000000000000000000000000000000000000000081525081526020016040518060400160405280600781526020017f416e6e6f7965640000000000000000000000000000000000000000000000000081525081526020016040518060400160405280600681526020017f47726f6f7679000000000000000000000000000000000000000000000000000081525081526020016040518060400160405280600a81526020017f46616c6c6163696f7573000000000000000000000000000000000000000000008152508152506009906006620001b692919062000714565b506040518060c001604052806040518060400160405280600681526020017f537475706964000000000000000000000000000000000000000000000000000081525081526020016040518060400160405280600681526020017f546f72706964000000000000000000000000000000000000000000000000000081525081526020016040518060400160405280600381526020017f486f74000000000000000000000000000000000000000000000000000000000081525081526020016040518060400160405280600881526020017f5472616e7175696c00000000000000000000000000000000000000000000000081525081526020016040518060400160405280600681526020017f436f6d6d6f6e000000000000000000000000000000000000000000000000000081525081526020016040518060400160405280600981526020017f457870656e736976650000000000000000000000000000000000000000000000815250815250600a9060066200033492919062000714565b506040518060c001604052806040518060400160405280600881526020017f477261746566756c00000000000000000000000000000000000000000000000081525081526020016040518060400160405280600a81526020017f456e6368616e74696e670000000000000000000000000000000000000000000081525081526020016040518060400160405280600981526020017f436f6e6365726e6564000000000000000000000000000000000000000000000081525081526020016040518060400160405280600881526020017f4d616a657374696300000000000000000000000000000000000000000000000081525081526020016040518060400160405280600881526020017f5069636179756e6500000000000000000000000000000000000000000000000081525081526020016040518060400160405280600a81526020017f5363616e64616c6f757300000000000000000000000000000000000000000000815250815250600b906006620004b292919062000714565b506000600c55348015620004c557600080fd5b506040518060400160405280600781526020017f4d6174684e4654000000000000000000000000000000000000000000000000008152506040518060400160405280600481526020017f4d4154480000000000000000000000000000000000000000000000000000000081525081600090805190602001906200054a92919062000683565b5080600190805190602001906200056392919062000683565b505050620005b16040518060400160405280601781526020017f4d6174684e465420736d61727420636f6e74726163742e000000000000000000815250620005b760201b620011701760201c565b62000935565b6200065781604051602401620005ce919062000849565b6040516020818303038152906040527f41304fac000000000000000000000000000000000000000000000000000000007bffffffffffffffffffffffffffffffffffffffffffffffffffffffff19166020820180517bffffffffffffffffffffffffffffffffffffffffffffffffffffffff83818316178352505050506200065a60201b60201c565b50565b60008151905060006a636f6e736f6c652e6c6f679050602083016000808483855afa5050505050565b8280546200069190620008bf565b90600052602060002090601f016020900481019282620006b5576000855562000701565b82601f10620006d057805160ff191683800117855562000701565b8280016001018555821562000701579182015b8281111562000700578251825591602001919060010190620006e3565b5b5090506200071091906200077b565b5090565b82805482825590600052602060002090810192821562000768579160200282015b82811115620007675782518290805190602001906200075692919062000683565b509160200191906001019062000735565b5b5090506200077791906200079a565b5090565b5b80821115620007965760008160009055506001016200077c565b5090565b5b80821115620007be5760008181620007b49190620007c2565b506001016200079b565b5090565b508054620007d090620008bf565b6000825580601f10620007e4575062000805565b601f0160209004906000526020600020908101906200080491906200077b565b5b50565b600062000815826200086d565b62000821818562000878565b93506200083381856020860162000889565b6200083e8162000924565b840191505092915050565b6000602082019050818103600083015262000865818462000808565b905092915050565b600081519050919050565b600082825260208201905092915050565b60005b83811015620008a95780820151818401526020810190506200088c565b83811115620008b9576000848401525b50505050565b60006002820490506001821680620008d857607f821691505b60208210811415620008ef57620008ee620008f5565b5b50919050565b7f4e487b7100000000000000000000000000000000000000000000000000000000600052602260045260246000fd5b6000601f19601f8301169050919050565b613b0080620009456000396000f3fe608060405234801561001057600080fd5b50600436106101005760003560e01c806370a0823111610097578063a22cb46511610066578063a22cb465146102ad578063b88d4fde146102c9578063c87b56dd146102e5578063e985e9c51461031557610100565b806370a082311461023757806395d89b41146102675780639659867e1461028557806398baa561146102a357610100565b806323b872dd116100d357806323b872dd1461019f57806342842e0e146101bb5780634f58eb02146101d75780636352211e1461020757610100565b806301ffc9a71461010557806306fdde0314610135578063081812fc14610153578063095ea7b314610183575b600080fd5b61011f600480360381019061011a91906125d0565b610345565b60405161012c9190612d07565b60405180910390f35b61013d610427565b60405161014a9190612d22565b60405180910390f35b61016d60048036038101906101689190612622565b6104b9565b60405161017a9190612c77565b60405180910390f35b61019d60048036038101906101989190612594565b61053e565b005b6101b960048036038101906101b4919061248e565b610656565b005b6101d560048036038101906101d0919061248e565b6106b6565b005b6101f160048036038101906101ec919061264b565b6106d6565b6040516101fe9190612d22565b60405180910390f35b610221600480360381019061021c9190612622565b610adf565b60405161022e9190612c77565b60405180910390f35b610251600480360381019061024c9190612429565b610b91565b60405161025e9190612f82565b60405180910390f35b61026f610c49565b60405161027c9190612d22565b60405180910390f35b61028d610cdb565b60405161029a9190612f82565b60405180910390f35b6102ab610ce1565b005b6102c760048036038101906102c29190612558565b610f12565b005b6102e360048036038101906102de91906124dd565b610f28565b005b6102ff60048036038101906102fa9190612622565b610f8a565b60405161030c9190612d22565b60405180910390f35b61032f600480360381019061032a9190612452565b6110dc565b60405161033c9190612d07565b60405180910390f35b60007f80ac58cd000000000000000000000000000000000000000000000000000000007bffffffffffffffffffffffffffffffffffffffffffffffffffffffff1916827bffffffffffffffffffffffffffffffffffffffffffffffffffffffff1916148061041057507f5b5e139f000000000000000000000000000000000000000000000000000000007bffffffffffffffffffffffffffffffffffffffffffffffffffffffff1916827bffffffffffffffffffffffffffffffffffffffffffffffffffffffff1916145b80610420575061041f82611209565b5b9050919050565b60606000805461043690613247565b80601f016020809104026020016040519081016040528092919081815260200182805461046290613247565b80156104af5780601f10610484576101008083540402835291602001916104af565b820191906000526020600020905b81548152906001019060200180831161049257829003601f168201915b5050505050905090565b60006104c482611273565b610503576040517f08c379a00000000000000000000000000000000000000000000000000000000081526004016104fa90612f02565b60405180910390fd5b6004600083815260200190815260200160002060009054906101000a900473ffffffffffffffffffffffffffffffffffffffff169050919050565b600061054982610adf565b90508073ffffffffffffffffffffffffffffffffffffffff168373ffffffffffffffffffffffffffffffffffffffff1614156105ba576040517f08c379a00000000000000000000000000000000000000000000000000000000081526004016105b190612f42565b60405180910390fd5b8073ffffffffffffffffffffffffffffffffffffffff166105d96112df565b73ffffffffffffffffffffffffffffffffffffffff1614806106085750610607816106026112df565b6110dc565b5b610647576040517f08c379a000000000000000000000000000000000000000000000000000000000815260040161063e90612e42565b60405180910390fd5b61065183836112e7565b505050565b6106676106616112df565b826113a0565b6106a6576040517f08c379a000000000000000000000000000000000000000000000000000000000815260040161069d90612f62565b60405180910390fd5b6106b183838361147e565b505050565b6106d183838360405180602001604052806000815250610f28565b505050565b6060600061070c836106e7866116e5565b6040516020016106f8929190612b4d565b604051602081830303815290604052611892565b9050606060405160200161071f90612bd1565b60405160208183030381529060405280519060200120846040516020016107469190612b36565b604051602081830303815290604052805190602001201415610837576009805480602002602001604051908101604052809291908181526020016000905b828210156108305783829060005260206000200180546107a390613247565b80601f01602080910402602001604051908101604052809291908181526020018280546107cf90613247565b801561081c5780601f106107f15761010080835404028352916020019161081c565b820191906000526020600020905b8154815290600101906020018083116107ff57829003601f168201915b505050505081526020019060010190610784565b5050505090505b60405160200161084690612be6565b604051602081830303815290604052805190602001208460405160200161086d9190612b36565b60405160208183030381529060405280519060200120141561095e57600a805480602002602001604051908101604052809291908181526020016000905b828210156109575783829060005260206000200180546108ca90613247565b80601f01602080910402602001604051908101604052809291908181526020018280546108f690613247565b80156109435780601f1061091857610100808354040283529160200191610943565b820191906000526020600020905b81548152906001019060200180831161092657829003601f168201915b5050505050815260200190600101906108ab565b5050505090505b60405160200161096d90612c40565b60405160208183030381529060405280519060200120846040516020016109949190612b36565b604051602081830303815290604052805190602001201415610a8557600b805480602002602001604051908101604052809291908181526020016000905b82821015610a7e5783829060005260206000200180546109f190613247565b80601f0160208091040260200160405190810160405280929190818152602001828054610a1d90613247565b8015610a6a5780601f10610a3f57610100808354040283529160200191610a6a565b820191906000526020600020905b815481529060010190602001808311610a4d57829003601f168201915b5050505050815260200190600101906109d2565b5050505090505b805182610a9291906132f3565b9150808281518110610acd577f4e487b7100000000000000000000000000000000000000000000000000000000600052603260045260246000fd5b60200260200101519250505092915050565b6000806002600084815260200190815260200160002060009054906101000a900473ffffffffffffffffffffffffffffffffffffffff169050600073ffffffffffffffffffffffffffffffffffffffff168173ffffffffffffffffffffffffffffffffffffffff161415610b88576040517f08c379a0000000000000000000000000000000000000000000000000000000008152600401610b7f90612e82565b60405180910390fd5b80915050919050565b60008073ffffffffffffffffffffffffffffffffffffffff168273ffffffffffffffffffffffffffffffffffffffff161415610c02576040517f08c379a0000000000000000000000000000000000000000000000000000000008152600401610bf990612e62565b60405180910390fd5b600360008373ffffffffffffffffffffffffffffffffffffffff1673ffffffffffffffffffffffffffffffffffffffff168152602001908152602001600020549050919050565b606060018054610c5890613247565b80601f0160208091040260200160405190810160405280929190818152602001828054610c8490613247565b8015610cd15780601f10610ca657610100808354040283529160200191610cd1565b820191906000526020600020905b815481529060010190602001808311610cb457829003601f168201915b5050505050905090565b600c5481565b6032600c5410610cf057600080fd5b6000610cfc60076118c5565b90506000610d3f826040518060400160405280600581526020017f46495253540000000000000000000000000000000000000000000000000000008152506106d6565b90506000610d82836040518060400160405280600681526020017f5345434f4e4400000000000000000000000000000000000000000000000000008152506106d6565b90506000610dc5846040518060400160405280600581526020017f54484952440000000000000000000000000000000000000000000000000000008152506106d6565b90506000838383604051602001610dde93929190612b71565b60405160208183030381529060405290506000600882604051602001610e05929190612ba2565b60405160208183030381529060405290506000610e21826118d3565b90506000610e4f8483604051602001610e3b929190612bfb565b6040516020818303038152906040526118d3565b9050600081604051602001610e649190612c55565b6040516020818303038152906040529050610e7f338a611a5d565b610e898982611a7b565b610e936007611aef565b610eb66040518060600160405280602b8152602001613aa0602b91398a33611b05565b600c6000815480929190610ec9906132aa565b91905055507ff2b290a76feb54be358b555507421d765609171aefa0646f109a653228ff81b8338a604051610eff929190612cde565b60405180910390a1505050505050505050565b610f24610f1d6112df565b8383611ba4565b5050565b610f39610f336112df565b836113a0565b610f78576040517f08c379a0000000000000000000000000000000000000000000000000000000008152600401610f6f90612f62565b60405180910390fd5b610f8484848484611d11565b50505050565b6060610f9582611273565b610fd4576040517f08c379a0000000000000000000000000000000000000000000000000000000008152600401610fcb90612ee2565b60405180910390fd5b6000600660008481526020019081526020016000208054610ff490613247565b80601f016020809104026020016040519081016040528092919081815260200182805461102090613247565b801561106d5780601f106110425761010080835404028352916020019161106d565b820191906000526020600020905b81548152906001019060200180831161105057829003601f168201915b50505050509050600061107e611d6d565b90506000815114156110945781925050506110d7565b6000825111156110c95780826040516020016110b1929190612b4d565b604051602081830303815290604052925050506110d7565b6110d284611d84565b925050505b919050565b6000600560008473ffffffffffffffffffffffffffffffffffffffff1673ffffffffffffffffffffffffffffffffffffffff16815260200190815260200160002060008373ffffffffffffffffffffffffffffffffffffffff1673ffffffffffffffffffffffffffffffffffffffff16815260200190815260200160002060009054906101000a900460ff16905092915050565b611206816040516024016111849190612d22565b6040516020818303038152906040527f41304fac000000000000000000000000000000000000000000000000000000007bffffffffffffffffffffffffffffffffffffffffffffffffffffffff19166020820180517bffffffffffffffffffffffffffffffffffffffffffffffffffffffff8381831617835250505050611e2b565b50565b60007f01ffc9a7000000000000000000000000000000000000000000000000000000007bffffffffffffffffffffffffffffffffffffffffffffffffffffffff1916827bffffffffffffffffffffffffffffffffffffffffffffffffffffffff1916149050919050565b60008073ffffffffffffffffffffffffffffffffffffffff166002600084815260200190815260200160002060009054906101000a900473ffffffffffffffffffffffffffffffffffffffff1673ffffffffffffffffffffffffffffffffffffffff1614159050919050565b600033905090565b816004600083815260200190815260200160002060006101000a81548173ffffffffffffffffffffffffffffffffffffffff021916908373ffffffffffffffffffffffffffffffffffffffff160217905550808273ffffffffffffffffffffffffffffffffffffffff1661135a83610adf565b73ffffffffffffffffffffffffffffffffffffffff167f8c5be1e5ebec7d5bd14f71427d1e84f3dd0314c0f7b2291e5b200ac8c7c3b92560405160405180910390a45050565b60006113ab82611273565b6113ea576040517f08c379a00000000000000000000000000000000000000000000000000000000081526004016113e190612e22565b60405180910390fd5b60006113f583610adf565b90508073ffffffffffffffffffffffffffffffffffffffff168473ffffffffffffffffffffffffffffffffffffffff16148061146457508373ffffffffffffffffffffffffffffffffffffffff1661144c846104b9565b73ffffffffffffffffffffffffffffffffffffffff16145b80611475575061147481856110dc565b5b91505092915050565b8273ffffffffffffffffffffffffffffffffffffffff1661149e82610adf565b73ffffffffffffffffffffffffffffffffffffffff16146114f4576040517f08c379a00000000000000000000000000000000000000000000000000000000081526004016114eb90612da2565b60405180910390fd5b600073ffffffffffffffffffffffffffffffffffffffff168273ffffffffffffffffffffffffffffffffffffffff161415611564576040517f08c379a000000000000000000000000000000000000000000000000000000000815260040161155b90612de2565b60405180910390fd5b61156f838383611e54565b61157a6000826112e7565b6001600360008573ffffffffffffffffffffffffffffffffffffffff1673ffffffffffffffffffffffffffffffffffffffff16815260200190815260200160002060008282546115ca919061315d565b925050819055506001600360008473ffffffffffffffffffffffffffffffffffffffff1673ffffffffffffffffffffffffffffffffffffffff1681526020019081526020016000206000828254611621919061307c565b92505081905550816002600083815260200190815260200160002060006101000a81548173ffffffffffffffffffffffffffffffffffffffff021916908373ffffffffffffffffffffffffffffffffffffffff160217905550808273ffffffffffffffffffffffffffffffffffffffff168473ffffffffffffffffffffffffffffffffffffffff167fddf252ad1be2c89b69c2b068fc378daa952ba7f163c4a11628f55a4df523b3ef60405160405180910390a46116e0838383611e59565b505050565b6060600082141561172d576040518060400160405280600181526020017f3000000000000000000000000000000000000000000000000000000000000000815250905061188d565b600082905060005b6000821461175f578080611748906132aa565b915050600a8261175891906130d2565b9150611735565b60008167ffffffffffffffff8111156117a1577f4e487b7100000000000000000000000000000000000000000000000000000000600052604160045260246000fd5b6040519080825280601f01601f1916602001820160405280156117d35781602001600182028036833780820191505090505b5090505b60008514611886576001826117ec919061315d565b9150600a856117fb91906132f3565b6030611807919061307c565b60f81b818381518110611843577f4e487b7100000000000000000000000000000000000000000000000000000000600052603260045260246000fd5b60200101907effffffffffffffffffffffffffffffffffffffffffffffffffffffffffffff1916908160001a905350600a8561187f91906130d2565b94506117d7565b8093505050505b919050565b6000816040516020016118a59190612b36565b6040516020818303038152906040528051906020012060001c9050919050565b600081600001549050919050565b60606000825114156118f657604051806020016040528060008152509050611a58565b6000604051806060016040528060408152602001613a606040913990506000600360028551611925919061307c565b61192f91906130d2565b600461193b9190613103565b67ffffffffffffffff81111561197a577f4e487b7100000000000000000000000000000000000000000000000000000000600052604160045260246000fd5b6040519080825280601f01601f1916602001820160405280156119ac5781602001600182028036833780820191505090505b509050600182016020820185865187015b80821015611a18576003820191508151603f8160121c168501518453600184019350603f81600c1c168501518453600184019350603f8160061c168501518453600184019350603f81168501518453600184019350506119bd565b5050600386510660018114611a345760028114611a4757611a4f565b603d6001830353603d6002830353611a4f565b603d60018303535b50505080925050505b919050565b611a77828260405180602001604052806000815250611e5e565b5050565b611a8482611273565b611ac3576040517f08c379a0000000000000000000000000000000000000000000000000000000008152600401611aba90612ea2565b60405180910390fd5b80600660008481526020019081526020016000209080519060200190611aea92919061224d565b505050565b6001816000016000828254019250508190555050565b611b9f838383604051602401611b1d93929190612d44565b6040516020818303038152906040527fe3849f79000000000000000000000000000000000000000000000000000000007bffffffffffffffffffffffffffffffffffffffffffffffffffffffff19166020820180517bffffffffffffffffffffffffffffffffffffffffffffffffffffffff8381831617835250505050611e2b565b505050565b8173ffffffffffffffffffffffffffffffffffffffff168373ffffffffffffffffffffffffffffffffffffffff161415611c13576040517f08c379a0000000000000000000000000000000000000000000000000000000008152600401611c0a90612e02565b60405180910390fd5b80600560008573ffffffffffffffffffffffffffffffffffffffff1673ffffffffffffffffffffffffffffffffffffffff16815260200190815260200160002060008473ffffffffffffffffffffffffffffffffffffffff1673ffffffffffffffffffffffffffffffffffffffff16815260200190815260200160002060006101000a81548160ff0219169083151502179055508173ffffffffffffffffffffffffffffffffffffffff168373ffffffffffffffffffffffffffffffffffffffff167f17307eab39ab6107e8899845ad3d59bd9653f200f220920489ca2b5937696c3183604051611d049190612d07565b60405180910390a3505050565b611d1c84848461147e565b611d2884848484611eb9565b611d67576040517f08c379a0000000000000000000000000000000000000000000000000000000008152600401611d5e90612d82565b60405180910390fd5b50505050565b606060405180602001604052806000815250905090565b6060611d8f82611273565b611dce576040517f08c379a0000000000000000000000000000000000000000000000000000000008152600401611dc590612f22565b60405180910390fd5b6000611dd8611d6d565b90506000815111611df85760405180602001604052806000815250611e23565b80611e02846116e5565b604051602001611e13929190612b4d565b6040516020818303038152906040525b915050919050565b60008151905060006a636f6e736f6c652e6c6f679050602083016000808483855afa5050505050565b505050565b505050565b611e688383612050565b611e756000848484611eb9565b611eb4576040517f08c379a0000000000000000000000000000000000000000000000000000000008152600401611eab90612d82565b60405180910390fd5b505050565b6000611eda8473ffffffffffffffffffffffffffffffffffffffff1661222a565b15612043578373ffffffffffffffffffffffffffffffffffffffff1663150b7a02611f036112df565b8786866040518563ffffffff1660e01b8152600401611f259493929190612c92565b602060405180830381600087803b158015611f3f57600080fd5b505af1925050508015611f7057506040513d601f19601f82011682018060405250810190611f6d91906125f9565b60015b611ff3573d8060008114611fa0576040519150601f19603f3d011682016040523d82523d6000602084013e611fa5565b606091505b50600081511415611feb576040517f08c379a0000000000000000000000000000000000000000000000000000000008152600401611fe290612d82565b60405180910390fd5b805181602001fd5b63150b7a0260e01b7bffffffffffffffffffffffffffffffffffffffffffffffffffffffff1916817bffffffffffffffffffffffffffffffffffffffffffffffffffffffff191614915050612048565b600190505b949350505050565b600073ffffffffffffffffffffffffffffffffffffffff168273ffffffffffffffffffffffffffffffffffffffff1614156120c0576040517f08c379a00000000000000000000000000000000000000000000000000000000081526004016120b790612ec2565b60405180910390fd5b6120c981611273565b15612109576040517f08c379a000000000000000000000000000000000000000000000000000000000815260040161210090612dc2565b60405180910390fd5b61211560008383611e54565b6001600360008473ffffffffffffffffffffffffffffffffffffffff1673ffffffffffffffffffffffffffffffffffffffff1681526020019081526020016000206000828254612165919061307c565b92505081905550816002600083815260200190815260200160002060006101000a81548173ffffffffffffffffffffffffffffffffffffffff021916908373ffffffffffffffffffffffffffffffffffffffff160217905550808273ffffffffffffffffffffffffffffffffffffffff16600073ffffffffffffffffffffffffffffffffffffffff167fddf252ad1be2c89b69c2b068fc378daa952ba7f163c4a11628f55a4df523b3ef60405160405180910390a461222660008383611e59565b5050565b6000808273ffffffffffffffffffffffffffffffffffffffff163b119050919050565b82805461225990613247565b90600052602060002090601f01602090048101928261227b57600085556122c2565b82601f1061229457805160ff19168380011785556122c2565b828001600101855582156122c2579182015b828111156122c15782518255916020019190600101906122a6565b5b5090506122cf91906122d3565b5090565b5b808211156122ec5760008160009055506001016122d4565b5090565b60006123036122fe84612fc2565b612f9d565b90508281526020810184848401111561231b57600080fd5b612326848285613205565b509392505050565b600061234161233c84612ff3565b612f9d565b90508281526020810184848401111561235957600080fd5b612364848285613205565b509392505050565b60008135905061237b81613a03565b92915050565b60008135905061239081613a1a565b92915050565b6000813590506123a581613a31565b92915050565b6000815190506123ba81613a31565b92915050565b600082601f8301126123d157600080fd5b81356123e18482602086016122f0565b91505092915050565b600082601f8301126123fb57600080fd5b813561240b84826020860161232e565b91505092915050565b60008135905061242381613a48565b92915050565b60006020828403121561243b57600080fd5b60006124498482850161236c565b91505092915050565b6000806040838503121561246557600080fd5b60006124738582860161236c565b92505060206124848582860161236c565b9150509250929050565b6000806000606084860312156124a357600080fd5b60006124b18682870161236c565b93505060206124c28682870161236c565b92505060406124d386828701612414565b9150509250925092565b600080600080608085870312156124f357600080fd5b60006125018782880161236c565b94505060206125128782880161236c565b935050604061252387828801612414565b925050606085013567ffffffffffffffff81111561254057600080fd5b61254c878288016123c0565b91505092959194509250565b6000806040838503121561256b57600080fd5b60006125798582860161236c565b925050602061258a85828601612381565b9150509250929050565b600080604083850312156125a757600080fd5b60006125b58582860161236c565b92505060206125c685828601612414565b9150509250929050565b6000602082840312156125e257600080fd5b60006125f084828501612396565b91505092915050565b60006020828403121561260b57600080fd5b6000612619848285016123ab565b91505092915050565b60006020828403121561263457600080fd5b600061264284828501612414565b91505092915050565b6000806040838503121561265e57600080fd5b600061266c85828601612414565b925050602083013567ffffffffffffffff81111561268957600080fd5b612695858286016123ea565b9150509250929050565b6126a881613191565b82525050565b6126b7816131a3565b82525050565b60006126c882613039565b6126d2818561304f565b93506126e2818560208601613214565b6126eb816133e0565b840191505092915050565b600061270182613044565b61270b8185613060565b935061271b818560208601613214565b612724816133e0565b840191505092915050565b600061273a82613044565b6127448185613071565b9350612754818560208601613214565b80840191505092915050565b6000815461276d81613247565b6127778186613071565b9450600182166000811461279257600181146127a3576127d6565b60ff198316865281860193506127d6565b6127ac85613024565b60005b838110156127ce578154818901526001820191506020810190506127af565b838801955050505b50505092915050565b60006127ec603283613060565b91506127f7826133f1565b604082019050919050565b600061280f602583613060565b915061281a82613440565b604082019050919050565b6000612832601c83613060565b915061283d8261348f565b602082019050919050565b6000612855600583613071565b9150612860826134b8565b600582019050919050565b6000612878602483613060565b9150612883826134e1565b604082019050919050565b600061289b601983613060565b91506128a682613530565b602082019050919050565b60006128be605c83613071565b91506128c982613559565b605c82019050919050565b60006128e1602c83613060565b91506128ec826135ce565b604082019050919050565b6000612904600d83613071565b915061290f8261361d565b600d82019050919050565b6000612927603883613060565b915061293282613646565b604082019050919050565b600061294a602a83613060565b915061295582613695565b604082019050919050565b600061296d602983613060565b9150612978826136e4565b604082019050919050565b6000612990602e83613060565b915061299b82613733565b604082019050919050565b60006129b3600683613071565b91506129be82613782565b600682019050919050565b60006129d6600283613071565b91506129e1826137ab565b600282019050919050565b60006129f9602083613060565b9150612a04826137d4565b602082019050919050565b6000612a1c603183613060565b9150612a27826137fd565b604082019050919050565b6000612a3f602c83613060565b9150612a4a8261384c565b604082019050919050565b6000612a62602f83613060565b9150612a6d8261389b565b604082019050919050565b6000612a85600a83613071565b9150612a90826138ea565b600a82019050919050565b6000612aa8600583613071565b9150612ab382613913565b600582019050919050565b6000612acb602183613060565b9150612ad68261393c565b604082019050919050565b6000612aee601d83613071565b9150612af98261398b565b601d82019050919050565b6000612b11603183613060565b9150612b1c826139b4565b604082019050919050565b612b30816131fb565b82525050565b6000612b42828461272f565b915081905092915050565b6000612b59828561272f565b9150612b65828461272f565b91508190509392505050565b6000612b7d828661272f565b9150612b89828561272f565b9150612b95828461272f565b9150819050949350505050565b6000612bae8285612760565b9150612bba828461272f565b9150612bc5826128f7565b91508190509392505050565b6000612bdc82612848565b9150819050919050565b6000612bf1826129a6565b9150819050919050565b6000612c0682612a78565b9150612c12828561272f565b9150612c1d826128b1565b9150612c29828461272f565b9150612c34826129c9565b91508190509392505050565b6000612c4b82612a9b565b9150819050919050565b6000612c6082612ae1565b9150612c6c828461272f565b915081905092915050565b6000602082019050612c8c600083018461269f565b92915050565b6000608082019050612ca7600083018761269f565b612cb4602083018661269f565b612cc16040830185612b27565b8181036060830152612cd381846126bd565b905095945050505050565b6000604082019050612cf3600083018561269f565b612d006020830184612b27565b9392505050565b6000602082019050612d1c60008301846126ae565b92915050565b60006020820190508181036000830152612d3c81846126f6565b905092915050565b60006060820190508181036000830152612d5e81866126f6565b9050612d6d6020830185612b27565b612d7a604083018461269f565b949350505050565b60006020820190508181036000830152612d9b816127df565b9050919050565b60006020820190508181036000830152612dbb81612802565b9050919050565b60006020820190508181036000830152612ddb81612825565b9050919050565b60006020820190508181036000830152612dfb8161286b565b9050919050565b60006020820190508181036000830152612e1b8161288e565b9050919050565b60006020820190508181036000830152612e3b816128d4565b9050919050565b60006020820190508181036000830152612e5b8161291a565b9050919050565b60006020820190508181036000830152612e7b8161293d565b9050919050565b60006020820190508181036000830152612e9b81612960565b9050919050565b60006020820190508181036000830152612ebb81612983565b9050919050565b60006020820190508181036000830152612edb816129ec565b9050919050565b60006020820190508181036000830152612efb81612a0f565b9050919050565b60006020820190508181036000830152612f1b81612a32565b9050919050565b60006020820190508181036000830152612f3b81612a55565b9050919050565b60006020820190508181036000830152612f5b81612abe565b9050919050565b60006020820190508181036000830152612f7b81612b04565b9050919050565b6000602082019050612f976000830184612b27565b92915050565b6000612fa7612fb8565b9050612fb38282613279565b919050565b6000604051905090565b600067ffffffffffffffff821115612fdd57612fdc6133b1565b5b612fe6826133e0565b9050602081019050919050565b600067ffffffffffffffff82111561300e5761300d6133b1565b5b613017826133e0565b9050602081019050919050565b60008190508160005260206000209050919050565b600081519050919050565b600081519050919050565b600082825260208201905092915050565b600082825260208201905092915050565b600081905092915050565b6000613087826131fb565b9150613092836131fb565b9250827fffffffffffffffffffffffffffffffffffffffffffffffffffffffffffffffff038211156130c7576130c6613324565b5b828201905092915050565b60006130dd826131fb565b91506130e8836131fb565b9250826130f8576130f7613353565b5b828204905092915050565b600061310e826131fb565b9150613119836131fb565b9250817fffffffffffffffffffffffffffffffffffffffffffffffffffffffffffffffff048311821515161561315257613151613324565b5b828202905092915050565b6000613168826131fb565b9150613173836131fb565b92508282101561318657613185613324565b5b828203905092915050565b600061319c826131db565b9050919050565b60008115159050919050565b60007fffffffff0000000000000000000000000000000000000000000000000000000082169050919050565b600073ffffffffffffffffffffffffffffffffffffffff82169050919050565b6000819050919050565b82818337600083830152505050565b60005b83811015613232578082015181840152602081019050613217565b83811115613241576000848401525b50505050565b6000600282049050600182168061325f57607f821691505b6020821081141561327357613272613382565b5b50919050565b613282826133e0565b810181811067ffffffffffffffff821117156132a1576132a06133b1565b5b80604052505050565b60006132b5826131fb565b91507fffffffffffffffffffffffffffffffffffffffffffffffffffffffffffffffff8214156132e8576132e7613324565b5b600182019050919050565b60006132fe826131fb565b9150613309836131fb565b92508261331957613318613353565b5b828206905092915050565b7f4e487b7100000000000000000000000000000000000000000000000000000000600052601160045260246000fd5b7f4e487b7100000000000000000000000000000000000000000000000000000000600052601260045260246000fd5b7f4e487b7100000000000000000000000000000000000000000000000000000000600052602260045260246000fd5b7f4e487b7100000000000000000000000000000000000000000000000000000000600052604160045260246000fd5b6000601f19601f8301169050919050565b7f4552433732313a207472616e7366657220746f206e6f6e20455243373231526560008201527f63656976657220696d706c656d656e7465720000000000000000000000000000602082015250565b7f4552433732313a207472616e736665722066726f6d20696e636f72726563742060008201527f6f776e6572000000000000000000000000000000000000000000000000000000602082015250565b7f4552433732313a20746f6b656e20616c7265616479206d696e74656400000000600082015250565b7f4649525354000000000000000000000000000000000000000000000000000000600082015250565b7f4552433732313a207472616e7366657220746f20746865207a65726f2061646460008201527f7265737300000000000000000000000000000000000000000000000000000000602082015250565b7f4552433732313a20617070726f766520746f2063616c6c657200000000000000600082015250565b7f222c20226465736372697074696f6e223a20224120636f6c6c656374696f6e2060008201527f6f66206d617468656d61746963616c20646174612e222c2022696d616765223a60208201527f2022646174613a696d6167652f7376672b786d6c3b6261736536342c00000000604082015250565b7f4552433732313a206f70657261746f7220717565727920666f72206e6f6e657860008201527f697374656e7420746f6b656e0000000000000000000000000000000000000000602082015250565b7f3c2f746578743e3c2f7376673e00000000000000000000000000000000000000600082015250565b7f4552433732313a20617070726f76652063616c6c6572206973206e6f74206f7760008201527f6e6572206e6f7220617070726f76656420666f7220616c6c0000000000000000602082015250565b7f4552433732313a2062616c616e636520717565727920666f7220746865207a6560008201527f726f206164647265737300000000000000000000000000000000000000000000602082015250565b7f4552433732313a206f776e657220717565727920666f72206e6f6e657869737460008201527f656e7420746f6b656e0000000000000000000000000000000000000000000000602082015250565b7f45524337323155524953746f726167653a2055524920736574206f66206e6f6e60008201527f6578697374656e7420746f6b656e000000000000000000000000000000000000602082015250565b7f5345434f4e440000000000000000000000000000000000000000000000000000600082015250565b7f227d000000000000000000000000000000000000000000000000000000000000600082015250565b7f4552433732313a206d696e7420746f20746865207a65726f2061646472657373600082015250565b7f45524337323155524953746f726167653a2055524920717565727920666f722060008201527f6e6f6e6578697374656e7420746f6b656e000000000000000000000000000000602082015250565b7f4552433732313a20617070726f76656420717565727920666f72206e6f6e657860008201527f697374656e7420746f6b656e0000000000000000000000000000000000000000602082015250565b7f4552433732314d657461646174613a2055524920717565727920666f72206e6f60008201527f6e6578697374656e7420746f6b656e0000000000000000000000000000000000602082015250565b7f7b226e616d65223a202200000000000000000000000000000000000000000000600082015250565b7f5448495244000000000000000000000000000000000000000000000000000000600082015250565b7f4552433732313a20617070726f76616c20746f2063757272656e74206f776e6560008201527f7200000000000000000000000000000000000000000000000000000000000000602082015250565b7f646174613a6170706c69636174696f6e2f6a736f6e3b6261736536342c000000600082015250565b7f4552433732313a207472616e736665722063616c6c6572206973206e6f74206f60008201527f776e6572206e6f7220617070726f766564000000000000000000000000000000602082015250565b613a0c81613191565b8114613a1757600080fd5b50565b613a23816131a3565b8114613a2e57600080fd5b50565b613a3a816131af565b8114613a4557600080fd5b50565b613a51816131fb565b8114613a5c57600080fd5b5056fe4142434445464748494a4b4c4d4e4f505152535455565758595a6162636465666768696a6b6c6d6e6f707172737475767778797a303132333435363738392b2f41204d617468204e4654207769746820496420257320686173206265656e206d696e74656420746f202573a26469706673582212207ef29f1c8ae0701f1229d95b7c95af335f806ad31dee62c9b924e810f43ef9b664736f6c634300080100333c73766720786d6c6e733d27687474703a2f2f7777772e77332e6f72672f323030302f73766727207072657365727665417370656374526174696f3d27784d696e594d696e206d656574272076696577426f783d273020302033353020333530273e3c7374796c653e2e62617365207b2066696c6c3a2077686974653b20666f6e742d66616d696c793a2073657269663b20666f6e742d73697a653a20323470783b207d3c2f7374796c653e3c726563742077696474683d273130302527206865696768743d2731303025272066696c6c3d27626c61636b27202f3e3c7465787420783d273530252720793d273530252720636c6173733d27626173652720646f6d696e616e742d626173656c696e653d276d6964646c652720746578742d616e63686f723d276d6964646c65273e",
  "linkReferences": {},
  "deployedLinkReferences": {}
}