{
  "_format": "hh-sol-artifact-1",
  "contractName": "MathNFT",
  "sourceName": "contracts/MathNFT.sol",
  "abi": [
    {
      "inputs": [],
      "stateMutability": "nonpayable",
      "type": "constructor"
    },
    {
      "anonymous": false,
      "inputs": [
        {
          "indexed": true,
          "internalType": "address",
          "name": "owner",
          "type": "address"
        },
        {
          "indexed": true,
          "internalType": "address",
          "name": "approved",
          "type": "address"
        },
        {
          "indexed": true,
          "internalType": "uint256",
          "name": "tokenId",
          "type": "uint256"
        }
      ],
      "name": "Approval",
      "type": "event"
    },
    {
      "anonymous": false,
      "inputs": [
        {
          "indexed": true,
          "internalType": "address",
          "name": "owner",
          "type": "address"
        },
        {
          "indexed": true,
          "internalType": "address",
          "name": "operator",
          "type": "address"
        },
        {
          "indexed": false,
          "internalType": "bool",
          "name": "approved",
          "type": "bool"
        }
      ],
      "name": "ApprovalForAll",
      "type": "event"
    },
    {
      "anonymous": false,
      "inputs": [
        {
          "indexed": true,
          "internalType": "address",
          "name": "from",
          "type": "address"
        },
        {
          "indexed": true,
          "internalType": "address",
          "name": "to",
          "type": "address"
        },
        {
          "indexed": true,
          "internalType": "uint256",
          "name": "tokenId",
          "type": "uint256"
        }
      ],
      "name": "Transfer",
      "type": "event"
    },
    {
      "inputs": [
        {
          "internalType": "address",
          "name": "to",
          "type": "address"
        },
        {
          "internalType": "uint256",
          "name": "tokenId",
          "type": "uint256"
        }
      ],
      "name": "approve",
      "outputs": [],
      "stateMutability": "nonpayable",
      "type": "function"
    },
    {
      "inputs": [
        {
          "internalType": "address",
          "name": "owner",
          "type": "address"
        }
      ],
      "name": "balanceOf",
      "outputs": [
        {
          "internalType": "uint256",
          "name": "",
          "type": "uint256"
        }
      ],
      "stateMutability": "view",
      "type": "function"
    },
    {
      "inputs": [
        {
          "internalType": "uint256",
          "name": "tokenId",
          "type": "uint256"
        }
      ],
      "name": "getApproved",
      "outputs": [
        {
          "internalType": "address",
          "name": "",
          "type": "address"
        }
      ],
      "stateMutability": "view",
      "type": "function"
    },
    {
      "inputs": [
        {
          "internalType": "address",
          "name": "owner",
          "type": "address"
        },
        {
          "internalType": "address",
          "name": "operator",
          "type": "address"
        }
      ],
      "name": "isApprovedForAll",
      "outputs": [
        {
          "internalType": "bool",
          "name": "",
          "type": "bool"
        }
      ],
      "stateMutability": "view",
      "type": "function"
    },
    {
      "inputs": [],
      "name": "makeMathNFT",
      "outputs": [],
      "stateMutability": "nonpayable",
      "type": "function"
    },
    {
      "inputs": [],
      "name": "name",
      "outputs": [
        {
          "internalType": "string",
          "name": "",
          "type": "string"
        }
      ],
      "stateMutability": "view",
      "type": "function"
    },
    {
      "inputs": [
        {
          "internalType": "uint256",
          "name": "tokenId",
          "type": "uint256"
        }
      ],
      "name": "ownerOf",
      "outputs": [
        {
          "internalType": "address",
          "name": "",
          "type": "address"
        }
      ],
      "stateMutability": "view",
      "type": "function"
    },
    {
      "inputs": [
        {
          "internalType": "uint256",
          "name": "tokenId",
          "type": "uint256"
        },
        {
          "internalType": "string",
          "name": "wordArray",
          "type": "string"
        }
      ],
      "name": "pickRandomWord",
      "outputs": [
        {
          "internalType": "string",
          "name": "",
          "type": "string"
        }
      ],
      "stateMutability": "view",
      "type": "function"
    },
    {
      "inputs": [
        {
          "internalType": "address",
          "name": "from",
          "type": "address"
        },
        {
          "internalType": "address",
          "name": "to",
          "type": "address"
        },
        {
          "internalType": "uint256",
          "name": "tokenId",
          "type": "uint256"
        }
      ],
      "name": "safeTransferFrom",
      "outputs": [],
      "stateMutability": "nonpayable",
      "type": "function"
    },
    {
      "inputs": [
        {
          "internalType": "address",
          "name": "from",
          "type": "address"
        },
        {
          "internalType": "address",
          "name": "to",
          "type": "address"
        },
        {
          "internalType": "uint256",
          "name": "tokenId",
          "type": "uint256"
        },
        {
          "internalType": "bytes",
          "name": "_data",
          "type": "bytes"
        }
      ],
      "name": "safeTransferFrom",
      "outputs": [],
      "stateMutability": "nonpayable",
      "type": "function"
    },
    {
      "inputs": [
        {
          "internalType": "address",
          "name": "operator",
          "type": "address"
        },
        {
          "internalType": "bool",
          "name": "approved",
          "type": "bool"
        }
      ],
      "name": "setApprovalForAll",
      "outputs": [],
      "stateMutability": "nonpayable",
      "type": "function"
    },
    {
      "inputs": [
        {
          "internalType": "bytes4",
          "name": "interfaceId",
          "type": "bytes4"
        }
      ],
      "name": "supportsInterface",
      "outputs": [
        {
          "internalType": "bool",
          "name": "",
          "type": "bool"
        }
      ],
      "stateMutability": "view",
      "type": "function"
    },
    {
      "inputs": [],
      "name": "symbol",
      "outputs": [
        {
          "internalType": "string",
          "name": "",
          "type": "string"
        }
      ],
      "stateMutability": "view",
      "type": "function"
    },
    {
      "inputs": [
        {
          "internalType": "uint256",
          "name": "tokenId",
          "type": "uint256"
        }
      ],
      "name": "tokenURI",
      "outputs": [
        {
          "internalType": "string",
          "name": "",
          "type": "string"
        }
      ],
      "stateMutability": "view",
      "type": "function"
    },
    {
      "inputs": [
        {
          "internalType": "address",
          "name": "from",
          "type": "address"
        },
        {
          "internalType": "address",
          "name": "to",
          "type": "address"
        },
        {
          "internalType": "uint256",
          "name": "tokenId",
          "type": "uint256"
        }
      ],
      "name": "transferFrom",
      "outputs": [],
      "stateMutability": "nonpayable",
      "type": "function"
    }
  ],
  "bytecode": "0x608060405260405180610160016040528061012f81526020016200440d61012f913960089080519060200190620000389291906200067e565b506040518060c001604052806040518060400160405280600a81526020017f53617469736679696e670000000000000000000000000000000000000000000081525081526020016040518060400160405280600881526020017f47756c6c69626c6500000000000000000000000000000000000000000000000081525081526020016040518060400160405280600981526020017f4d616b657368696674000000000000000000000000000000000000000000000081525081526020016040518060400160405280600781526020017f416e6e6f7965640000000000000000000000000000000000000000000000000081525081526020016040518060400160405280600681526020017f47726f6f7679000000000000000000000000000000000000000000000000000081525081526020016040518060400160405280600a81526020017f46616c6c6163696f7573000000000000000000000000000000000000000000008152508152506009906006620001b69291906200070f565b506040518060c001604052806040518060400160405280600681526020017f537475706964000000000000000000000000000000000000000000000000000081525081526020016040518060400160405280600681526020017f546f72706964000000000000000000000000000000000000000000000000000081525081526020016040518060400160405280600381526020017f486f74000000000000000000000000000000000000000000000000000000000081525081526020016040518060400160405280600881526020017f5472616e7175696c00000000000000000000000000000000000000000000000081525081526020016040518060400160405280600681526020017f436f6d6d6f6e000000000000000000000000000000000000000000000000000081525081526020016040518060400160405280600981526020017f457870656e736976650000000000000000000000000000000000000000000000815250815250600a906006620003349291906200070f565b506040518060c001604052806040518060400160405280600881526020017f477261746566756c00000000000000000000000000000000000000000000000081525081526020016040518060400160405280600a81526020017f456e6368616e74696e670000000000000000000000000000000000000000000081525081526020016040518060400160405280600981526020017f436f6e6365726e6564000000000000000000000000000000000000000000000081525081526020016040518060400160405280600881526020017f4d616a657374696300000000000000000000000000000000000000000000000081525081526020016040518060400160405280600881526020017f5069636179756e6500000000000000000000000000000000000000000000000081525081526020016040518060400160405280600a81526020017f5363616e64616c6f757300000000000000000000000000000000000000000000815250815250600b906006620004b29291906200070f565b50348015620004c057600080fd5b506040518060400160405280600781526020017f4d6174684e4654000000000000000000000000000000000000000000000000008152506040518060400160405280600481526020017f4d415448000000000000000000000000000000000000000000000000000000008152508160009080519060200190620005459291906200067e565b5080600190805190602001906200055e9291906200067e565b505050620005ac6040518060400160405280601781526020017f4d6174684e465420736d61727420636f6e74726163742e000000000000000000815250620005b260201b620011661760201c565b62000930565b6200065281604051602401620005c9919062000844565b6040516020818303038152906040527f41304fac000000000000000000000000000000000000000000000000000000007bffffffffffffffffffffffffffffffffffffffffffffffffffffffff19166020820180517bffffffffffffffffffffffffffffffffffffffffffffffffffffffff83818316178352505050506200065560201b60201c565b50565b60008151905060006a636f6e736f6c652e6c6f679050602083016000808483855afa5050505050565b8280546200068c90620008ba565b90600052602060002090601f016020900481019282620006b05760008555620006fc565b82601f10620006cb57805160ff1916838001178555620006fc565b82800160010185558215620006fc579182015b82811115620006fb578251825591602001919060010190620006de565b5b5090506200070b919062000776565b5090565b82805482825590600052602060002090810192821562000763579160200282015b8281111562000762578251829080519060200190620007519291906200067e565b509160200191906001019062000730565b5b50905062000772919062000795565b5090565b5b808211156200079157600081600090555060010162000777565b5090565b5b80821115620007b95760008181620007af9190620007bd565b5060010162000796565b5090565b508054620007cb90620008ba565b6000825580601f10620007df575062000800565b601f016020900490600052602060002090810190620007ff919062000776565b5b50565b6000620008108262000868565b6200081c818562000873565b93506200082e81856020860162000884565b62000839816200091f565b840191505092915050565b6000602082019050818103600083015262000860818462000803565b905092915050565b600081519050919050565b600082825260208201905092915050565b60005b83811015620008a457808201518184015260208101905062000887565b83811115620008b4576000848401525b50505050565b60006002820490506001821680620008d357607f821691505b60208210811415620008ea57620008e9620008f0565b5b50919050565b7f4e487b7100000000000000000000000000000000000000000000000000000000600052602260045260246000fd5b6000601f19601f8301169050919050565b613acd80620009406000396000f3fe608060405234801561001057600080fd5b50600436106100f55760003560e01c80636352211e11610097578063a22cb46511610066578063a22cb46514610284578063b88d4fde146102a0578063c87b56dd146102bc578063e985e9c5146102ec576100f5565b80636352211e146101fc57806370a082311461022c57806395d89b411461025c57806398baa5611461027a576100f5565b8063095ea7b3116100d3578063095ea7b31461017857806323b872dd1461019457806342842e0e146101b05780634f58eb02146101cc576100f5565b806301ffc9a7146100fa57806306fdde031461012a578063081812fc14610148575b600080fd5b610114600480360381019061010f91906125c6565b61031c565b6040516101219190612cd4565b60405180910390f35b6101326103fe565b60405161013f9190612cef565b60405180910390f35b610162600480360381019061015d9190612618565b610490565b60405161016f9190612c6d565b60405180910390f35b610192600480360381019061018d919061258a565b610515565b005b6101ae60048036038101906101a99190612484565b61062d565b005b6101ca60048036038101906101c59190612484565b61068d565b005b6101e660048036038101906101e19190612641565b6106ad565b6040516101f39190612cef565b60405180910390f35b61021660048036038101906102119190612618565b610ab6565b6040516102239190612c6d565b60405180910390f35b6102466004803603810190610241919061241f565b610b68565b6040516102539190612f4f565b60405180910390f35b610264610c20565b6040516102719190612cef565b60405180910390f35b610282610cb2565b005b61029e6004803603810190610299919061254e565b610f08565b005b6102ba60048036038101906102b591906124d3565b610f1e565b005b6102d660048036038101906102d19190612618565b610f80565b6040516102e39190612cef565b60405180910390f35b61030660048036038101906103019190612448565b6110d2565b6040516103139190612cd4565b60405180910390f35b60007f80ac58cd000000000000000000000000000000000000000000000000000000007bffffffffffffffffffffffffffffffffffffffffffffffffffffffff1916827bffffffffffffffffffffffffffffffffffffffffffffffffffffffff191614806103e757507f5b5e139f000000000000000000000000000000000000000000000000000000007bffffffffffffffffffffffffffffffffffffffffffffffffffffffff1916827bffffffffffffffffffffffffffffffffffffffffffffffffffffffff1916145b806103f757506103f6826111ff565b5b9050919050565b60606000805461040d90613214565b80601f016020809104026020016040519081016040528092919081815260200182805461043990613214565b80156104865780601f1061045b57610100808354040283529160200191610486565b820191906000526020600020905b81548152906001019060200180831161046957829003601f168201915b5050505050905090565b600061049b82611269565b6104da576040517f08c379a00000000000000000000000000000000000000000000000000000000081526004016104d190612ecf565b60405180910390fd5b6004600083815260200190815260200160002060009054906101000a900473ffffffffffffffffffffffffffffffffffffffff169050919050565b600061052082610ab6565b90508073ffffffffffffffffffffffffffffffffffffffff168373ffffffffffffffffffffffffffffffffffffffff161415610591576040517f08c379a000000000000000000000000000000000000000000000000000000000815260040161058890612f0f565b60405180910390fd5b8073ffffffffffffffffffffffffffffffffffffffff166105b06112d5565b73ffffffffffffffffffffffffffffffffffffffff1614806105df57506105de816105d96112d5565b6110d2565b5b61061e576040517f08c379a000000000000000000000000000000000000000000000000000000000815260040161061590612e0f565b60405180910390fd5b61062883836112dd565b505050565b61063e6106386112d5565b82611396565b61067d576040517f08c379a000000000000000000000000000000000000000000000000000000000815260040161067490612f2f565b60405180910390fd5b610688838383611474565b505050565b6106a883838360405180602001604052806000815250610f1e565b505050565b606060006106e3836106be866116db565b6040516020016106cf929190612b43565b604051602081830303815290604052611888565b905060606040516020016106f690612bc7565b604051602081830303815290604052805190602001208460405160200161071d9190612b2c565b60405160208183030381529060405280519060200120141561080e576009805480602002602001604051908101604052809291908181526020016000905b8282101561080757838290600052602060002001805461077a90613214565b80601f01602080910402602001604051908101604052809291908181526020018280546107a690613214565b80156107f35780601f106107c8576101008083540402835291602001916107f3565b820191906000526020600020905b8154815290600101906020018083116107d657829003601f168201915b50505050508152602001906001019061075b565b5050505090505b60405160200161081d90612bdc565b60405160208183030381529060405280519060200120846040516020016108449190612b2c565b60405160208183030381529060405280519060200120141561093557600a805480602002602001604051908101604052809291908181526020016000905b8282101561092e5783829060005260206000200180546108a190613214565b80601f01602080910402602001604051908101604052809291908181526020018280546108cd90613214565b801561091a5780601f106108ef5761010080835404028352916020019161091a565b820191906000526020600020905b8154815290600101906020018083116108fd57829003601f168201915b505050505081526020019060010190610882565b5050505090505b60405160200161094490612c36565b604051602081830303815290604052805190602001208460405160200161096b9190612b2c565b604051602081830303815290604052805190602001201415610a5c57600b805480602002602001604051908101604052809291908181526020016000905b82821015610a555783829060005260206000200180546109c890613214565b80601f01602080910402602001604051908101604052809291908181526020018280546109f490613214565b8015610a415780601f10610a1657610100808354040283529160200191610a41565b820191906000526020600020905b815481529060010190602001808311610a2457829003601f168201915b5050505050815260200190600101906109a9565b5050505090505b805182610a6991906132c0565b9150808281518110610aa4577f4e487b7100000000000000000000000000000000000000000000000000000000600052603260045260246000fd5b60200260200101519250505092915050565b6000806002600084815260200190815260200160002060009054906101000a900473ffffffffffffffffffffffffffffffffffffffff169050600073ffffffffffffffffffffffffffffffffffffffff168173ffffffffffffffffffffffffffffffffffffffff161415610b5f576040517f08c379a0000000000000000000000000000000000000000000000000000000008152600401610b5690612e4f565b60405180910390fd5b80915050919050565b60008073ffffffffffffffffffffffffffffffffffffffff168273ffffffffffffffffffffffffffffffffffffffff161415610bd9576040517f08c379a0000000000000000000000000000000000000000000000000000000008152600401610bd090612e2f565b60405180910390fd5b600360008373ffffffffffffffffffffffffffffffffffffffff1673ffffffffffffffffffffffffffffffffffffffff168152602001908152602001600020549050919050565b606060018054610c2f90613214565b80601f0160208091040260200160405190810160405280929190818152602001828054610c5b90613214565b8015610ca85780601f10610c7d57610100808354040283529160200191610ca8565b820191906000526020600020905b815481529060010190602001808311610c8b57829003601f168201915b5050505050905090565b6000610cbe60076118bb565b90506000610d01826040518060400160405280600581526020017f46495253540000000000000000000000000000000000000000000000000000008152506106ad565b90506000610d44836040518060400160405280600681526020017f5345434f4e4400000000000000000000000000000000000000000000000000008152506106ad565b90506000610d87846040518060400160405280600581526020017f54484952440000000000000000000000000000000000000000000000000000008152506106ad565b90506000838383604051602001610da093929190612b67565b60405160208183030381529060405290506000600882604051602001610dc7929190612b98565b60405160208183030381529060405290506000610de3826118c9565b90506000610e118483604051602001610dfd929190612bf1565b6040516020818303038152906040526118c9565b9050600081604051602001610e269190612c4b565b6040516020818303038152906040529050610e756040518060400160405280600181526020017f0a00000000000000000000000000000000000000000000000000000000000000815250611166565b610e7e81611166565b610ebc6040518060400160405280600181526020017f0a00000000000000000000000000000000000000000000000000000000000000815250611166565b610ec6338a611a53565b610ed08982611a71565b610eda6007611ae5565b610efd6040518060600160405280602b8152602001613a6d602b91398a33611afb565b505050505050505050565b610f1a610f136112d5565b8383611b9a565b5050565b610f2f610f296112d5565b83611396565b610f6e576040517f08c379a0000000000000000000000000000000000000000000000000000000008152600401610f6590612f2f565b60405180910390fd5b610f7a84848484611d07565b50505050565b6060610f8b82611269565b610fca576040517f08c379a0000000000000000000000000000000000000000000000000000000008152600401610fc190612eaf565b60405180910390fd5b6000600660008481526020019081526020016000208054610fea90613214565b80601f016020809104026020016040519081016040528092919081815260200182805461101690613214565b80156110635780601f1061103857610100808354040283529160200191611063565b820191906000526020600020905b81548152906001019060200180831161104657829003601f168201915b505050505090506000611074611d63565b905060008151141561108a5781925050506110cd565b6000825111156110bf5780826040516020016110a7929190612b43565b604051602081830303815290604052925050506110cd565b6110c884611d7a565b925050505b919050565b6000600560008473ffffffffffffffffffffffffffffffffffffffff1673ffffffffffffffffffffffffffffffffffffffff16815260200190815260200160002060008373ffffffffffffffffffffffffffffffffffffffff1673ffffffffffffffffffffffffffffffffffffffff16815260200190815260200160002060009054906101000a900460ff16905092915050565b6111fc8160405160240161117a9190612cef565b6040516020818303038152906040527f41304fac000000000000000000000000000000000000000000000000000000007bffffffffffffffffffffffffffffffffffffffffffffffffffffffff19166020820180517bffffffffffffffffffffffffffffffffffffffffffffffffffffffff8381831617835250505050611e21565b50565b60007f01ffc9a7000000000000000000000000000000000000000000000000000000007bffffffffffffffffffffffffffffffffffffffffffffffffffffffff1916827bffffffffffffffffffffffffffffffffffffffffffffffffffffffff1916149050919050565b60008073ffffffffffffffffffffffffffffffffffffffff166002600084815260200190815260200160002060009054906101000a900473ffffffffffffffffffffffffffffffffffffffff1673ffffffffffffffffffffffffffffffffffffffff1614159050919050565b600033905090565b816004600083815260200190815260200160002060006101000a81548173ffffffffffffffffffffffffffffffffffffffff021916908373ffffffffffffffffffffffffffffffffffffffff160217905550808273ffffffffffffffffffffffffffffffffffffffff1661135083610ab6565b73ffffffffffffffffffffffffffffffffffffffff167f8c5be1e5ebec7d5bd14f71427d1e84f3dd0314c0f7b2291e5b200ac8c7c3b92560405160405180910390a45050565b60006113a182611269565b6113e0576040517f08c379a00000000000000000000000000000000000000000000000000000000081526004016113d790612def565b60405180910390fd5b60006113eb83610ab6565b90508073ffffffffffffffffffffffffffffffffffffffff168473ffffffffffffffffffffffffffffffffffffffff16148061145a57508373ffffffffffffffffffffffffffffffffffffffff1661144284610490565b73ffffffffffffffffffffffffffffffffffffffff16145b8061146b575061146a81856110d2565b5b91505092915050565b8273ffffffffffffffffffffffffffffffffffffffff1661149482610ab6565b73ffffffffffffffffffffffffffffffffffffffff16146114ea576040517f08c379a00000000000000000000000000000000000000000000000000000000081526004016114e190612d6f565b60405180910390fd5b600073ffffffffffffffffffffffffffffffffffffffff168273ffffffffffffffffffffffffffffffffffffffff16141561155a576040517f08c379a000000000000000000000000000000000000000000000000000000000815260040161155190612daf565b60405180910390fd5b611565838383611e4a565b6115706000826112dd565b6001600360008573ffffffffffffffffffffffffffffffffffffffff1673ffffffffffffffffffffffffffffffffffffffff16815260200190815260200160002060008282546115c0919061312a565b925050819055506001600360008473ffffffffffffffffffffffffffffffffffffffff1673ffffffffffffffffffffffffffffffffffffffff16815260200190815260200160002060008282546116179190613049565b92505081905550816002600083815260200190815260200160002060006101000a81548173ffffffffffffffffffffffffffffffffffffffff021916908373ffffffffffffffffffffffffffffffffffffffff160217905550808273ffffffffffffffffffffffffffffffffffffffff168473ffffffffffffffffffffffffffffffffffffffff167fddf252ad1be2c89b69c2b068fc378daa952ba7f163c4a11628f55a4df523b3ef60405160405180910390a46116d6838383611e4f565b505050565b60606000821415611723576040518060400160405280600181526020017f30000000000000000000000000000000000000000000000000000000000000008152509050611883565b600082905060005b6000821461175557808061173e90613277565b915050600a8261174e919061309f565b915061172b565b60008167ffffffffffffffff811115611797577f4e487b7100000000000000000000000000000000000000000000000000000000600052604160045260246000fd5b6040519080825280601f01601f1916602001820160405280156117c95781602001600182028036833780820191505090505b5090505b6000851461187c576001826117e2919061312a565b9150600a856117f191906132c0565b60306117fd9190613049565b60f81b818381518110611839577f4e487b7100000000000000000000000000000000000000000000000000000000600052603260045260246000fd5b60200101907effffffffffffffffffffffffffffffffffffffffffffffffffffffffffffff1916908160001a905350600a85611875919061309f565b94506117cd565b8093505050505b919050565b60008160405160200161189b9190612b2c565b6040516020818303038152906040528051906020012060001c9050919050565b600081600001549050919050565b60606000825114156118ec57604051806020016040528060008152509050611a4e565b6000604051806060016040528060408152602001613a2d604091399050600060036002855161191b9190613049565b611925919061309f565b600461193191906130d0565b67ffffffffffffffff811115611970577f4e487b7100000000000000000000000000000000000000000000000000000000600052604160045260246000fd5b6040519080825280601f01601f1916602001820160405280156119a25781602001600182028036833780820191505090505b509050600182016020820185865187015b80821015611a0e576003820191508151603f8160121c168501518453600184019350603f81600c1c168501518453600184019350603f8160061c168501518453600184019350603f81168501518453600184019350506119b3565b5050600386510660018114611a2a5760028114611a3d57611a45565b603d6001830353603d6002830353611a45565b603d60018303535b50505080925050505b919050565b611a6d828260405180602001604052806000815250611e54565b5050565b611a7a82611269565b611ab9576040517f08c379a0000000000000000000000000000000000000000000000000000000008152600401611ab090612e6f565b60405180910390fd5b80600660008481526020019081526020016000209080519060200190611ae0929190612243565b505050565b6001816000016000828254019250508190555050565b611b95838383604051602401611b1393929190612d11565b6040516020818303038152906040527fe3849f79000000000000000000000000000000000000000000000000000000007bffffffffffffffffffffffffffffffffffffffffffffffffffffffff19166020820180517bffffffffffffffffffffffffffffffffffffffffffffffffffffffff8381831617835250505050611e21565b505050565b8173ffffffffffffffffffffffffffffffffffffffff168373ffffffffffffffffffffffffffffffffffffffff161415611c09576040517f08c379a0000000000000000000000000000000000000000000000000000000008152600401611c0090612dcf565b60405180910390fd5b80600560008573ffffffffffffffffffffffffffffffffffffffff1673ffffffffffffffffffffffffffffffffffffffff16815260200190815260200160002060008473ffffffffffffffffffffffffffffffffffffffff1673ffffffffffffffffffffffffffffffffffffffff16815260200190815260200160002060006101000a81548160ff0219169083151502179055508173ffffffffffffffffffffffffffffffffffffffff168373ffffffffffffffffffffffffffffffffffffffff167f17307eab39ab6107e8899845ad3d59bd9653f200f220920489ca2b5937696c3183604051611cfa9190612cd4565b60405180910390a3505050565b611d12848484611474565b611d1e84848484611eaf565b611d5d576040517f08c379a0000000000000000000000000000000000000000000000000000000008152600401611d5490612d4f565b60405180910390fd5b50505050565b606060405180602001604052806000815250905090565b6060611d8582611269565b611dc4576040517f08c379a0000000000000000000000000000000000000000000000000000000008152600401611dbb90612eef565b60405180910390fd5b6000611dce611d63565b90506000815111611dee5760405180602001604052806000815250611e19565b80611df8846116db565b604051602001611e09929190612b43565b6040516020818303038152906040525b915050919050565b60008151905060006a636f6e736f6c652e6c6f679050602083016000808483855afa5050505050565b505050565b505050565b611e5e8383612046565b611e6b6000848484611eaf565b611eaa576040517f08c379a0000000000000000000000000000000000000000000000000000000008152600401611ea190612d4f565b60405180910390fd5b505050565b6000611ed08473ffffffffffffffffffffffffffffffffffffffff16612220565b15612039578373ffffffffffffffffffffffffffffffffffffffff1663150b7a02611ef96112d5565b8786866040518563ffffffff1660e01b8152600401611f1b9493929190612c88565b602060405180830381600087803b158015611f3557600080fd5b505af1925050508015611f6657506040513d601f19601f82011682018060405250810190611f6391906125ef565b60015b611fe9573d8060008114611f96576040519150601f19603f3d011682016040523d82523d6000602084013e611f9b565b606091505b50600081511415611fe1576040517f08c379a0000000000000000000000000000000000000000000000000000000008152600401611fd890612d4f565b60405180910390fd5b805181602001fd5b63150b7a0260e01b7bffffffffffffffffffffffffffffffffffffffffffffffffffffffff1916817bffffffffffffffffffffffffffffffffffffffffffffffffffffffff19161491505061203e565b600190505b949350505050565b600073ffffffffffffffffffffffffffffffffffffffff168273ffffffffffffffffffffffffffffffffffffffff1614156120b6576040517f08c379a00000000000000000000000000000000000000000000000000000000081526004016120ad90612e8f565b60405180910390fd5b6120bf81611269565b156120ff576040517f08c379a00000000000000000000000000000000000000000000000000000000081526004016120f690612d8f565b60405180910390fd5b61210b60008383611e4a565b6001600360008473ffffffffffffffffffffffffffffffffffffffff1673ffffffffffffffffffffffffffffffffffffffff168152602001908152602001600020600082825461215b9190613049565b92505081905550816002600083815260200190815260200160002060006101000a81548173ffffffffffffffffffffffffffffffffffffffff021916908373ffffffffffffffffffffffffffffffffffffffff160217905550808273ffffffffffffffffffffffffffffffffffffffff16600073ffffffffffffffffffffffffffffffffffffffff167fddf252ad1be2c89b69c2b068fc378daa952ba7f163c4a11628f55a4df523b3ef60405160405180910390a461221c60008383611e4f565b5050565b6000808273ffffffffffffffffffffffffffffffffffffffff163b119050919050565b82805461224f90613214565b90600052602060002090601f01602090048101928261227157600085556122b8565b82601f1061228a57805160ff19168380011785556122b8565b828001600101855582156122b8579182015b828111156122b757825182559160200191906001019061229c565b5b5090506122c591906122c9565b5090565b5b808211156122e25760008160009055506001016122ca565b5090565b60006122f96122f484612f8f565b612f6a565b90508281526020810184848401111561231157600080fd5b61231c8482856131d2565b509392505050565b600061233761233284612fc0565b612f6a565b90508281526020810184848401111561234f57600080fd5b61235a8482856131d2565b509392505050565b600081359050612371816139d0565b92915050565b600081359050612386816139e7565b92915050565b60008135905061239b816139fe565b92915050565b6000815190506123b0816139fe565b92915050565b600082601f8301126123c757600080fd5b81356123d78482602086016122e6565b91505092915050565b600082601f8301126123f157600080fd5b8135612401848260208601612324565b91505092915050565b60008135905061241981613a15565b92915050565b60006020828403121561243157600080fd5b600061243f84828501612362565b91505092915050565b6000806040838503121561245b57600080fd5b600061246985828601612362565b925050602061247a85828601612362565b9150509250929050565b60008060006060848603121561249957600080fd5b60006124a786828701612362565b93505060206124b886828701612362565b92505060406124c98682870161240a565b9150509250925092565b600080600080608085870312156124e957600080fd5b60006124f787828801612362565b945050602061250887828801612362565b93505060406125198782880161240a565b925050606085013567ffffffffffffffff81111561253657600080fd5b612542878288016123b6565b91505092959194509250565b6000806040838503121561256157600080fd5b600061256f85828601612362565b925050602061258085828601612377565b9150509250929050565b6000806040838503121561259d57600080fd5b60006125ab85828601612362565b92505060206125bc8582860161240a565b9150509250929050565b6000602082840312156125d857600080fd5b60006125e68482850161238c565b91505092915050565b60006020828403121561260157600080fd5b600061260f848285016123a1565b91505092915050565b60006020828403121561262a57600080fd5b60006126388482850161240a565b91505092915050565b6000806040838503121561265457600080fd5b60006126628582860161240a565b925050602083013567ffffffffffffffff81111561267f57600080fd5b61268b858286016123e0565b9150509250929050565b61269e8161315e565b82525050565b6126ad81613170565b82525050565b60006126be82613006565b6126c8818561301c565b93506126d88185602086016131e1565b6126e1816133ad565b840191505092915050565b60006126f782613011565b612701818561302d565b93506127118185602086016131e1565b61271a816133ad565b840191505092915050565b600061273082613011565b61273a818561303e565b935061274a8185602086016131e1565b80840191505092915050565b6000815461276381613214565b61276d818661303e565b945060018216600081146127885760018114612799576127cc565b60ff198316865281860193506127cc565b6127a285612ff1565b60005b838110156127c4578154818901526001820191506020810190506127a5565b838801955050505b50505092915050565b60006127e260328361302d565b91506127ed826133be565b604082019050919050565b600061280560258361302d565b91506128108261340d565b604082019050919050565b6000612828601c8361302d565b91506128338261345c565b602082019050919050565b600061284b60058361303e565b915061285682613485565b600582019050919050565b600061286e60248361302d565b9150612879826134ae565b604082019050919050565b600061289160198361302d565b915061289c826134fd565b602082019050919050565b60006128b4605c8361303e565b91506128bf82613526565b605c82019050919050565b60006128d7602c8361302d565b91506128e28261359b565b604082019050919050565b60006128fa600d8361303e565b9150612905826135ea565b600d82019050919050565b600061291d60388361302d565b915061292882613613565b604082019050919050565b6000612940602a8361302d565b915061294b82613662565b604082019050919050565b600061296360298361302d565b915061296e826136b1565b604082019050919050565b6000612986602e8361302d565b915061299182613700565b604082019050919050565b60006129a960068361303e565b91506129b48261374f565b600682019050919050565b60006129cc60028361303e565b91506129d782613778565b600282019050919050565b60006129ef60208361302d565b91506129fa826137a1565b602082019050919050565b6000612a1260318361302d565b9150612a1d826137ca565b604082019050919050565b6000612a35602c8361302d565b9150612a4082613819565b604082019050919050565b6000612a58602f8361302d565b9150612a6382613868565b604082019050919050565b6000612a7b600a8361303e565b9150612a86826138b7565b600a82019050919050565b6000612a9e60058361303e565b9150612aa9826138e0565b600582019050919050565b6000612ac160218361302d565b9150612acc82613909565b604082019050919050565b6000612ae4601d8361303e565b9150612aef82613958565b601d82019050919050565b6000612b0760318361302d565b9150612b1282613981565b604082019050919050565b612b26816131c8565b82525050565b6000612b388284612725565b915081905092915050565b6000612b4f8285612725565b9150612b5b8284612725565b91508190509392505050565b6000612b738286612725565b9150612b7f8285612725565b9150612b8b8284612725565b9150819050949350505050565b6000612ba48285612756565b9150612bb08284612725565b9150612bbb826128ed565b91508190509392505050565b6000612bd28261283e565b9150819050919050565b6000612be78261299c565b9150819050919050565b6000612bfc82612a6e565b9150612c088285612725565b9150612c13826128a7565b9150612c1f8284612725565b9150612c2a826129bf565b91508190509392505050565b6000612c4182612a91565b9150819050919050565b6000612c5682612ad7565b9150612c628284612725565b915081905092915050565b6000602082019050612c826000830184612695565b92915050565b6000608082019050612c9d6000830187612695565b612caa6020830186612695565b612cb76040830185612b1d565b8181036060830152612cc981846126b3565b905095945050505050565b6000602082019050612ce960008301846126a4565b92915050565b60006020820190508181036000830152612d0981846126ec565b905092915050565b60006060820190508181036000830152612d2b81866126ec565b9050612d3a6020830185612b1d565b612d476040830184612695565b949350505050565b60006020820190508181036000830152612d68816127d5565b9050919050565b60006020820190508181036000830152612d88816127f8565b9050919050565b60006020820190508181036000830152612da88161281b565b9050919050565b60006020820190508181036000830152612dc881612861565b9050919050565b60006020820190508181036000830152612de881612884565b9050919050565b60006020820190508181036000830152612e08816128ca565b9050919050565b60006020820190508181036000830152612e2881612910565b9050919050565b60006020820190508181036000830152612e4881612933565b9050919050565b60006020820190508181036000830152612e6881612956565b9050919050565b60006020820190508181036000830152612e8881612979565b9050919050565b60006020820190508181036000830152612ea8816129e2565b9050919050565b60006020820190508181036000830152612ec881612a05565b9050919050565b60006020820190508181036000830152612ee881612a28565b9050919050565b60006020820190508181036000830152612f0881612a4b565b9050919050565b60006020820190508181036000830152612f2881612ab4565b9050919050565b60006020820190508181036000830152612f4881612afa565b9050919050565b6000602082019050612f646000830184612b1d565b92915050565b6000612f74612f85565b9050612f808282613246565b919050565b6000604051905090565b600067ffffffffffffffff821115612faa57612fa961337e565b5b612fb3826133ad565b9050602081019050919050565b600067ffffffffffffffff821115612fdb57612fda61337e565b5b612fe4826133ad565b9050602081019050919050565b60008190508160005260206000209050919050565b600081519050919050565b600081519050919050565b600082825260208201905092915050565b600082825260208201905092915050565b600081905092915050565b6000613054826131c8565b915061305f836131c8565b9250827fffffffffffffffffffffffffffffffffffffffffffffffffffffffffffffffff03821115613094576130936132f1565b5b828201905092915050565b60006130aa826131c8565b91506130b5836131c8565b9250826130c5576130c4613320565b5b828204905092915050565b60006130db826131c8565b91506130e6836131c8565b9250817fffffffffffffffffffffffffffffffffffffffffffffffffffffffffffffffff048311821515161561311f5761311e6132f1565b5b828202905092915050565b6000613135826131c8565b9150613140836131c8565b925082821015613153576131526132f1565b5b828203905092915050565b6000613169826131a8565b9050919050565b60008115159050919050565b60007fffffffff0000000000000000000000000000000000000000000000000000000082169050919050565b600073ffffffffffffffffffffffffffffffffffffffff82169050919050565b6000819050919050565b82818337600083830152505050565b60005b838110156131ff5780820151818401526020810190506131e4565b8381111561320e576000848401525b50505050565b6000600282049050600182168061322c57607f821691505b602082108114156132405761323f61334f565b5b50919050565b61324f826133ad565b810181811067ffffffffffffffff8211171561326e5761326d61337e565b5b80604052505050565b6000613282826131c8565b91507fffffffffffffffffffffffffffffffffffffffffffffffffffffffffffffffff8214156132b5576132b46132f1565b5b600182019050919050565b60006132cb826131c8565b91506132d6836131c8565b9250826132e6576132e5613320565b5b828206905092915050565b7f4e487b7100000000000000000000000000000000000000000000000000000000600052601160045260246000fd5b7f4e487b7100000000000000000000000000000000000000000000000000000000600052601260045260246000fd5b7f4e487b7100000000000000000000000000000000000000000000000000000000600052602260045260246000fd5b7f4e487b7100000000000000000000000000000000000000000000000000000000600052604160045260246000fd5b6000601f19601f8301169050919050565b7f4552433732313a207472616e7366657220746f206e6f6e20455243373231526560008201527f63656976657220696d706c656d656e7465720000000000000000000000000000602082015250565b7f4552433732313a207472616e736665722066726f6d20696e636f72726563742060008201527f6f776e6572000000000000000000000000000000000000000000000000000000602082015250565b7f4552433732313a20746f6b656e20616c7265616479206d696e74656400000000600082015250565b7f4649525354000000000000000000000000000000000000000000000000000000600082015250565b7f4552433732313a207472616e7366657220746f20746865207a65726f2061646460008201527f7265737300000000000000000000000000000000000000000000000000000000602082015250565b7f4552433732313a20617070726f766520746f2063616c6c657200000000000000600082015250565b7f222c20226465736372697074696f6e223a20224120636f6c6c656374696f6e2060008201527f6f66206d617468656d61746963616c20646174612e222c2022696d616765223a60208201527f2022646174613a696d6167652f7376672b786d6c3b6261736536342c00000000604082015250565b7f4552433732313a206f70657261746f7220717565727920666f72206e6f6e657860008201527f697374656e7420746f6b656e0000000000000000000000000000000000000000602082015250565b7f3c2f746578743e3c2f7376673e00000000000000000000000000000000000000600082015250565b7f4552433732313a20617070726f76652063616c6c6572206973206e6f74206f7760008201527f6e6572206e6f7220617070726f76656420666f7220616c6c0000000000000000602082015250565b7f4552433732313a2062616c616e636520717565727920666f7220746865207a6560008201527f726f206164647265737300000000000000000000000000000000000000000000602082015250565b7f4552433732313a206f776e657220717565727920666f72206e6f6e657869737460008201527f656e7420746f6b656e0000000000000000000000000000000000000000000000602082015250565b7f45524337323155524953746f726167653a2055524920736574206f66206e6f6e60008201527f6578697374656e7420746f6b656e000000000000000000000000000000000000602082015250565b7f5345434f4e440000000000000000000000000000000000000000000000000000600082015250565b7f227d000000000000000000000000000000000000000000000000000000000000600082015250565b7f4552433732313a206d696e7420746f20746865207a65726f2061646472657373600082015250565b7f45524337323155524953746f726167653a2055524920717565727920666f722060008201527f6e6f6e6578697374656e7420746f6b656e000000000000000000000000000000602082015250565b7f4552433732313a20617070726f76656420717565727920666f72206e6f6e657860008201527f697374656e7420746f6b656e0000000000000000000000000000000000000000602082015250565b7f4552433732314d657461646174613a2055524920717565727920666f72206e6f60008201527f6e6578697374656e7420746f6b656e0000000000000000000000000000000000602082015250565b7f7b226e616d65223a202200000000000000000000000000000000000000000000600082015250565b7f5448495244000000000000000000000000000000000000000000000000000000600082015250565b7f4552433732313a20617070726f76616c20746f2063757272656e74206f776e6560008201527f7200000000000000000000000000000000000000000000000000000000000000602082015250565b7f646174613a6170706c69636174696f6e2f6a736f6e3b6261736536342c000000600082015250565b7f4552433732313a207472616e736665722063616c6c6572206973206e6f74206f60008201527f776e6572206e6f7220617070726f766564000000000000000000000000000000602082015250565b6139d98161315e565b81146139e457600080fd5b50565b6139f081613170565b81146139fb57600080fd5b50565b613a078161317c565b8114613a1257600080fd5b50565b613a1e816131c8565b8114613a2957600080fd5b5056fe4142434445464748494a4b4c4d4e4f505152535455565758595a6162636465666768696a6b6c6d6e6f707172737475767778797a303132333435363738392b2f41204d617468204e4654207769746820496420257320686173206265656e206d696e74656420746f202573a264697066735822122070ed323f9c4edb10524faf624ca3760d563d63764f479cf5dfb1aa918502f2ee64736f6c634300080100333c73766720786d6c6e733d27687474703a2f2f7777772e77332e6f72672f323030302f73766727207072657365727665417370656374526174696f3d27784d696e594d696e206d656574272076696577426f783d273020302033353020333530273e3c7374796c653e2e62617365207b2066696c6c3a2077686974653b20666f6e742d66616d696c793a2073657269663b20666f6e742d73697a653a20323470783b207d3c2f7374796c653e3c726563742077696474683d273130302527206865696768743d2731303025272066696c6c3d27626c61636b27202f3e3c7465787420783d273530252720793d273530252720636c6173733d27626173652720646f6d696e616e742d626173656c696e653d276d6964646c652720746578742d616e63686f723d276d6964646c65273e",
  "linkReferences": {},
  "deployedLinkReferences": {}
}