{
  "_format": "hh-sol-artifact-1",
  "contractName": "MathNFT",
  "sourceName": "contracts/MathNFT.sol",
  "abi": [
    {
      "inputs": [],
      "stateMutability": "nonpayable",
      "type": "constructor"
    },
    {
      "anonymous": false,
      "inputs": [
        {
          "indexed": true,
          "internalType": "address",
          "name": "owner",
          "type": "address"
        },
        {
          "indexed": true,
          "internalType": "address",
          "name": "approved",
          "type": "address"
        },
        {
          "indexed": true,
          "internalType": "uint256",
          "name": "tokenId",
          "type": "uint256"
        }
      ],
      "name": "Approval",
      "type": "event"
    },
    {
      "anonymous": false,
      "inputs": [
        {
          "indexed": true,
          "internalType": "address",
          "name": "owner",
          "type": "address"
        },
        {
          "indexed": true,
          "internalType": "address",
          "name": "operator",
          "type": "address"
        },
        {
          "indexed": false,
          "internalType": "bool",
          "name": "approved",
          "type": "bool"
        }
      ],
      "name": "ApprovalForAll",
      "type": "event"
    },
    {
      "anonymous": false,
      "inputs": [
        {
          "indexed": false,
          "internalType": "address",
          "name": "sender",
          "type": "address"
        },
        {
          "indexed": false,
          "internalType": "uint256",
          "name": "tokenId",
          "type": "uint256"
        }
      ],
      "name": "NftMinted",
      "type": "event"
    },
    {
      "anonymous": false,
      "inputs": [
        {
          "indexed": true,
          "internalType": "address",
          "name": "from",
          "type": "address"
        },
        {
          "indexed": true,
          "internalType": "address",
          "name": "to",
          "type": "address"
        },
        {
          "indexed": true,
          "internalType": "uint256",
          "name": "tokenId",
          "type": "uint256"
        }
      ],
      "name": "Transfer",
      "type": "event"
    },
    {
      "inputs": [
        {
          "internalType": "address",
          "name": "to",
          "type": "address"
        },
        {
          "internalType": "uint256",
          "name": "tokenId",
          "type": "uint256"
        }
      ],
      "name": "approve",
      "outputs": [],
      "stateMutability": "nonpayable",
      "type": "function"
    },
    {
      "inputs": [
        {
          "internalType": "address",
          "name": "owner",
          "type": "address"
        }
      ],
      "name": "balanceOf",
      "outputs": [
        {
          "internalType": "uint256",
          "name": "",
          "type": "uint256"
        }
      ],
      "stateMutability": "view",
      "type": "function"
    },
    {
      "inputs": [
        {
          "internalType": "uint256",
          "name": "tokenId",
          "type": "uint256"
        }
      ],
      "name": "getApproved",
      "outputs": [
        {
          "internalType": "address",
          "name": "",
          "type": "address"
        }
      ],
      "stateMutability": "view",
      "type": "function"
    },
    {
      "inputs": [
        {
          "internalType": "address",
          "name": "owner",
          "type": "address"
        },
        {
          "internalType": "address",
          "name": "operator",
          "type": "address"
        }
      ],
      "name": "isApprovedForAll",
      "outputs": [
        {
          "internalType": "bool",
          "name": "",
          "type": "bool"
        }
      ],
      "stateMutability": "view",
      "type": "function"
    },
    {
      "inputs": [],
      "name": "makeMathNFT",
      "outputs": [],
      "stateMutability": "nonpayable",
      "type": "function"
    },
    {
      "inputs": [],
      "name": "name",
      "outputs": [
        {
          "internalType": "string",
          "name": "",
          "type": "string"
        }
      ],
      "stateMutability": "view",
      "type": "function"
    },
    {
      "inputs": [
        {
          "internalType": "uint256",
          "name": "tokenId",
          "type": "uint256"
        }
      ],
      "name": "ownerOf",
      "outputs": [
        {
          "internalType": "address",
          "name": "",
          "type": "address"
        }
      ],
      "stateMutability": "view",
      "type": "function"
    },
    {
      "inputs": [
        {
          "internalType": "uint256",
          "name": "tokenId",
          "type": "uint256"
        },
        {
          "internalType": "string",
          "name": "wordArray",
          "type": "string"
        }
      ],
      "name": "pickRandomWord",
      "outputs": [
        {
          "internalType": "string",
          "name": "",
          "type": "string"
        }
      ],
      "stateMutability": "view",
      "type": "function"
    },
    {
      "inputs": [
        {
          "internalType": "address",
          "name": "from",
          "type": "address"
        },
        {
          "internalType": "address",
          "name": "to",
          "type": "address"
        },
        {
          "internalType": "uint256",
          "name": "tokenId",
          "type": "uint256"
        }
      ],
      "name": "safeTransferFrom",
      "outputs": [],
      "stateMutability": "nonpayable",
      "type": "function"
    },
    {
      "inputs": [
        {
          "internalType": "address",
          "name": "from",
          "type": "address"
        },
        {
          "internalType": "address",
          "name": "to",
          "type": "address"
        },
        {
          "internalType": "uint256",
          "name": "tokenId",
          "type": "uint256"
        },
        {
          "internalType": "bytes",
          "name": "_data",
          "type": "bytes"
        }
      ],
      "name": "safeTransferFrom",
      "outputs": [],
      "stateMutability": "nonpayable",
      "type": "function"
    },
    {
      "inputs": [
        {
          "internalType": "address",
          "name": "operator",
          "type": "address"
        },
        {
          "internalType": "bool",
          "name": "approved",
          "type": "bool"
        }
      ],
      "name": "setApprovalForAll",
      "outputs": [],
      "stateMutability": "nonpayable",
      "type": "function"
    },
    {
      "inputs": [
        {
          "internalType": "bytes4",
          "name": "interfaceId",
          "type": "bytes4"
        }
      ],
      "name": "supportsInterface",
      "outputs": [
        {
          "internalType": "bool",
          "name": "",
          "type": "bool"
        }
      ],
      "stateMutability": "view",
      "type": "function"
    },
    {
      "inputs": [],
      "name": "symbol",
      "outputs": [
        {
          "internalType": "string",
          "name": "",
          "type": "string"
        }
      ],
      "stateMutability": "view",
      "type": "function"
    },
    {
      "inputs": [
        {
          "internalType": "uint256",
          "name": "tokenId",
          "type": "uint256"
        }
      ],
      "name": "tokenURI",
      "outputs": [
        {
          "internalType": "string",
          "name": "",
          "type": "string"
        }
      ],
      "stateMutability": "view",
      "type": "function"
    },
    {
      "inputs": [
        {
          "internalType": "address",
          "name": "from",
          "type": "address"
        },
        {
          "internalType": "address",
          "name": "to",
          "type": "address"
        },
        {
          "internalType": "uint256",
          "name": "tokenId",
          "type": "uint256"
        }
      ],
      "name": "transferFrom",
      "outputs": [],
      "stateMutability": "nonpayable",
      "type": "function"
    }
  ],
  "bytecode": "0x608060405260405180610160016040528061012f8152602001620043ea61012f913960089080519060200190620000389291906200067e565b506040518060c001604052806040518060400160405280600a81526020017f53617469736679696e670000000000000000000000000000000000000000000081525081526020016040518060400160405280600881526020017f47756c6c69626c6500000000000000000000000000000000000000000000000081525081526020016040518060400160405280600981526020017f4d616b657368696674000000000000000000000000000000000000000000000081525081526020016040518060400160405280600781526020017f416e6e6f7965640000000000000000000000000000000000000000000000000081525081526020016040518060400160405280600681526020017f47726f6f7679000000000000000000000000000000000000000000000000000081525081526020016040518060400160405280600a81526020017f46616c6c6163696f7573000000000000000000000000000000000000000000008152508152506009906006620001b69291906200070f565b506040518060c001604052806040518060400160405280600681526020017f537475706964000000000000000000000000000000000000000000000000000081525081526020016040518060400160405280600681526020017f546f72706964000000000000000000000000000000000000000000000000000081525081526020016040518060400160405280600381526020017f486f74000000000000000000000000000000000000000000000000000000000081525081526020016040518060400160405280600881526020017f5472616e7175696c00000000000000000000000000000000000000000000000081525081526020016040518060400160405280600681526020017f436f6d6d6f6e000000000000000000000000000000000000000000000000000081525081526020016040518060400160405280600981526020017f457870656e736976650000000000000000000000000000000000000000000000815250815250600a906006620003349291906200070f565b506040518060c001604052806040518060400160405280600881526020017f477261746566756c00000000000000000000000000000000000000000000000081525081526020016040518060400160405280600a81526020017f456e6368616e74696e670000000000000000000000000000000000000000000081525081526020016040518060400160405280600981526020017f436f6e6365726e6564000000000000000000000000000000000000000000000081525081526020016040518060400160405280600881526020017f4d616a657374696300000000000000000000000000000000000000000000000081525081526020016040518060400160405280600881526020017f5069636179756e6500000000000000000000000000000000000000000000000081525081526020016040518060400160405280600a81526020017f5363616e64616c6f757300000000000000000000000000000000000000000000815250815250600b906006620004b29291906200070f565b50348015620004c057600080fd5b506040518060400160405280600781526020017f4d6174684e4654000000000000000000000000000000000000000000000000008152506040518060400160405280600481526020017f4d415448000000000000000000000000000000000000000000000000000000008152508160009080519060200190620005459291906200067e565b5080600190805190602001906200055e9291906200067e565b505050620005ac6040518060400160405280601781526020017f4d6174684e465420736d61727420636f6e74726163742e000000000000000000815250620005b260201b6200111a1760201c565b62000930565b6200065281604051602401620005c9919062000844565b6040516020818303038152906040527f41304fac000000000000000000000000000000000000000000000000000000007bffffffffffffffffffffffffffffffffffffffffffffffffffffffff19166020820180517bffffffffffffffffffffffffffffffffffffffffffffffffffffffff83818316178352505050506200065560201b60201c565b50565b60008151905060006a636f6e736f6c652e6c6f679050602083016000808483855afa5050505050565b8280546200068c90620008ba565b90600052602060002090601f016020900481019282620006b05760008555620006fc565b82601f10620006cb57805160ff1916838001178555620006fc565b82800160010185558215620006fc579182015b82811115620006fb578251825591602001919060010190620006de565b5b5090506200070b919062000776565b5090565b82805482825590600052602060002090810192821562000763579160200282015b8281111562000762578251829080519060200190620007519291906200067e565b509160200191906001019062000730565b5b50905062000772919062000795565b5090565b5b808211156200079157600081600090555060010162000777565b5090565b5b80821115620007b95760008181620007af9190620007bd565b5060010162000796565b5090565b508054620007cb90620008ba565b6000825580601f10620007df575062000800565b601f016020900490600052602060002090810190620007ff919062000776565b5b50565b6000620008108262000868565b6200081c818562000873565b93506200082e81856020860162000884565b62000839816200091f565b840191505092915050565b6000602082019050818103600083015262000860818462000803565b905092915050565b600081519050919050565b600082825260208201905092915050565b60005b83811015620008a457808201518184015260208101905062000887565b83811115620008b4576000848401525b50505050565b60006002820490506001821680620008d357607f821691505b60208210811415620008ea57620008e9620008f0565b5b50919050565b7f4e487b7100000000000000000000000000000000000000000000000000000000600052602260045260246000fd5b6000601f19601f8301169050919050565b613aaa80620009406000396000f3fe608060405234801561001057600080fd5b50600436106100f55760003560e01c80636352211e11610097578063a22cb46511610066578063a22cb46514610284578063b88d4fde146102a0578063c87b56dd146102bc578063e985e9c5146102ec576100f5565b80636352211e146101fc57806370a082311461022c57806395d89b411461025c57806398baa5611461027a576100f5565b8063095ea7b3116100d3578063095ea7b31461017857806323b872dd1461019457806342842e0e146101b05780634f58eb02146101cc576100f5565b806301ffc9a7146100fa57806306fdde031461012a578063081812fc14610148575b600080fd5b610114600480360381019061010f919061257a565b61031c565b6040516101219190612cb1565b60405180910390f35b6101326103fe565b60405161013f9190612ccc565b60405180910390f35b610162600480360381019061015d91906125cc565b610490565b60405161016f9190612c21565b60405180910390f35b610192600480360381019061018d919061253e565b610515565b005b6101ae60048036038101906101a99190612438565b61062d565b005b6101ca60048036038101906101c59190612438565b61068d565b005b6101e660048036038101906101e191906125f5565b6106ad565b6040516101f39190612ccc565b60405180910390f35b610216600480360381019061021191906125cc565b610ab6565b6040516102239190612c21565b60405180910390f35b610246600480360381019061024191906123d3565b610b68565b6040516102539190612f2c565b60405180910390f35b610264610c20565b6040516102719190612ccc565b60405180910390f35b610282610cb2565b005b61029e60048036038101906102999190612502565b610ebc565b005b6102ba60048036038101906102b59190612487565b610ed2565b005b6102d660048036038101906102d191906125cc565b610f34565b6040516102e39190612ccc565b60405180910390f35b610306600480360381019061030191906123fc565b611086565b6040516103139190612cb1565b60405180910390f35b60007f80ac58cd000000000000000000000000000000000000000000000000000000007bffffffffffffffffffffffffffffffffffffffffffffffffffffffff1916827bffffffffffffffffffffffffffffffffffffffffffffffffffffffff191614806103e757507f5b5e139f000000000000000000000000000000000000000000000000000000007bffffffffffffffffffffffffffffffffffffffffffffffffffffffff1916827bffffffffffffffffffffffffffffffffffffffffffffffffffffffff1916145b806103f757506103f6826111b3565b5b9050919050565b60606000805461040d906131f1565b80601f0160208091040260200160405190810160405280929190818152602001828054610439906131f1565b80156104865780601f1061045b57610100808354040283529160200191610486565b820191906000526020600020905b81548152906001019060200180831161046957829003601f168201915b5050505050905090565b600061049b8261121d565b6104da576040517f08c379a00000000000000000000000000000000000000000000000000000000081526004016104d190612eac565b60405180910390fd5b6004600083815260200190815260200160002060009054906101000a900473ffffffffffffffffffffffffffffffffffffffff169050919050565b600061052082610ab6565b90508073ffffffffffffffffffffffffffffffffffffffff168373ffffffffffffffffffffffffffffffffffffffff161415610591576040517f08c379a000000000000000000000000000000000000000000000000000000000815260040161058890612eec565b60405180910390fd5b8073ffffffffffffffffffffffffffffffffffffffff166105b0611289565b73ffffffffffffffffffffffffffffffffffffffff1614806105df57506105de816105d9611289565b611086565b5b61061e576040517f08c379a000000000000000000000000000000000000000000000000000000000815260040161061590612dec565b60405180910390fd5b6106288383611291565b505050565b61063e610638611289565b8261134a565b61067d576040517f08c379a000000000000000000000000000000000000000000000000000000000815260040161067490612f0c565b60405180910390fd5b610688838383611428565b505050565b6106a883838360405180602001604052806000815250610ed2565b505050565b606060006106e3836106be8661168f565b6040516020016106cf929190612af7565b60405160208183030381529060405261183c565b905060606040516020016106f690612b7b565b604051602081830303815290604052805190602001208460405160200161071d9190612ae0565b60405160208183030381529060405280519060200120141561080e576009805480602002602001604051908101604052809291908181526020016000905b8282101561080757838290600052602060002001805461077a906131f1565b80601f01602080910402602001604051908101604052809291908181526020018280546107a6906131f1565b80156107f35780601f106107c8576101008083540402835291602001916107f3565b820191906000526020600020905b8154815290600101906020018083116107d657829003601f168201915b50505050508152602001906001019061075b565b5050505090505b60405160200161081d90612b90565b60405160208183030381529060405280519060200120846040516020016108449190612ae0565b60405160208183030381529060405280519060200120141561093557600a805480602002602001604051908101604052809291908181526020016000905b8282101561092e5783829060005260206000200180546108a1906131f1565b80601f01602080910402602001604051908101604052809291908181526020018280546108cd906131f1565b801561091a5780601f106108ef5761010080835404028352916020019161091a565b820191906000526020600020905b8154815290600101906020018083116108fd57829003601f168201915b505050505081526020019060010190610882565b5050505090505b60405160200161094490612bea565b604051602081830303815290604052805190602001208460405160200161096b9190612ae0565b604051602081830303815290604052805190602001201415610a5c57600b805480602002602001604051908101604052809291908181526020016000905b82821015610a555783829060005260206000200180546109c8906131f1565b80601f01602080910402602001604051908101604052809291908181526020018280546109f4906131f1565b8015610a415780601f10610a1657610100808354040283529160200191610a41565b820191906000526020600020905b815481529060010190602001808311610a2457829003601f168201915b5050505050815260200190600101906109a9565b5050505090505b805182610a69919061329d565b9150808281518110610aa4577f4e487b7100000000000000000000000000000000000000000000000000000000600052603260045260246000fd5b60200260200101519250505092915050565b6000806002600084815260200190815260200160002060009054906101000a900473ffffffffffffffffffffffffffffffffffffffff169050600073ffffffffffffffffffffffffffffffffffffffff168173ffffffffffffffffffffffffffffffffffffffff161415610b5f576040517f08c379a0000000000000000000000000000000000000000000000000000000008152600401610b5690612e2c565b60405180910390fd5b80915050919050565b60008073ffffffffffffffffffffffffffffffffffffffff168273ffffffffffffffffffffffffffffffffffffffff161415610bd9576040517f08c379a0000000000000000000000000000000000000000000000000000000008152600401610bd090612e0c565b60405180910390fd5b600360008373ffffffffffffffffffffffffffffffffffffffff1673ffffffffffffffffffffffffffffffffffffffff168152602001908152602001600020549050919050565b606060018054610c2f906131f1565b80601f0160208091040260200160405190810160405280929190818152602001828054610c5b906131f1565b8015610ca85780601f10610c7d57610100808354040283529160200191610ca8565b820191906000526020600020905b815481529060010190602001808311610c8b57829003601f168201915b5050505050905090565b6000610cbe600761186f565b90506000610d01826040518060400160405280600581526020017f46495253540000000000000000000000000000000000000000000000000000008152506106ad565b90506000610d44836040518060400160405280600681526020017f5345434f4e4400000000000000000000000000000000000000000000000000008152506106ad565b90506000610d87846040518060400160405280600581526020017f54484952440000000000000000000000000000000000000000000000000000008152506106ad565b90506000838383604051602001610da093929190612b1b565b60405160208183030381529060405290506000600882604051602001610dc7929190612b4c565b60405160208183030381529060405290506000610de38261187d565b90506000610e118483604051602001610dfd929190612ba5565b60405160208183030381529060405261187d565b9050600081604051602001610e269190612bff565b6040516020818303038152906040529050610e41338a611a07565b610e4b8982611a25565b610e556007611a99565b610e786040518060600160405280602b8152602001613a4a602b91398a33611aaf565b7ff2b290a76feb54be358b555507421d765609171aefa0646f109a653228ff81b8338a604051610ea9929190612c88565b60405180910390a1505050505050505050565b610ece610ec7611289565b8383611b4e565b5050565b610ee3610edd611289565b8361134a565b610f22576040517f08c379a0000000000000000000000000000000000000000000000000000000008152600401610f1990612f0c565b60405180910390fd5b610f2e84848484611cbb565b50505050565b6060610f3f8261121d565b610f7e576040517f08c379a0000000000000000000000000000000000000000000000000000000008152600401610f7590612e8c565b60405180910390fd5b6000600660008481526020019081526020016000208054610f9e906131f1565b80601f0160208091040260200160405190810160405280929190818152602001828054610fca906131f1565b80156110175780601f10610fec57610100808354040283529160200191611017565b820191906000526020600020905b815481529060010190602001808311610ffa57829003601f168201915b505050505090506000611028611d17565b905060008151141561103e578192505050611081565b60008251111561107357808260405160200161105b929190612af7565b60405160208183030381529060405292505050611081565b61107c84611d2e565b925050505b919050565b6000600560008473ffffffffffffffffffffffffffffffffffffffff1673ffffffffffffffffffffffffffffffffffffffff16815260200190815260200160002060008373ffffffffffffffffffffffffffffffffffffffff1673ffffffffffffffffffffffffffffffffffffffff16815260200190815260200160002060009054906101000a900460ff16905092915050565b6111b08160405160240161112e9190612ccc565b6040516020818303038152906040527f41304fac000000000000000000000000000000000000000000000000000000007bffffffffffffffffffffffffffffffffffffffffffffffffffffffff19166020820180517bffffffffffffffffffffffffffffffffffffffffffffffffffffffff8381831617835250505050611dd5565b50565b60007f01ffc9a7000000000000000000000000000000000000000000000000000000007bffffffffffffffffffffffffffffffffffffffffffffffffffffffff1916827bffffffffffffffffffffffffffffffffffffffffffffffffffffffff1916149050919050565b60008073ffffffffffffffffffffffffffffffffffffffff166002600084815260200190815260200160002060009054906101000a900473ffffffffffffffffffffffffffffffffffffffff1673ffffffffffffffffffffffffffffffffffffffff1614159050919050565b600033905090565b816004600083815260200190815260200160002060006101000a81548173ffffffffffffffffffffffffffffffffffffffff021916908373ffffffffffffffffffffffffffffffffffffffff160217905550808273ffffffffffffffffffffffffffffffffffffffff1661130483610ab6565b73ffffffffffffffffffffffffffffffffffffffff167f8c5be1e5ebec7d5bd14f71427d1e84f3dd0314c0f7b2291e5b200ac8c7c3b92560405160405180910390a45050565b60006113558261121d565b611394576040517f08c379a000000000000000000000000000000000000000000000000000000000815260040161138b90612dcc565b60405180910390fd5b600061139f83610ab6565b90508073ffffffffffffffffffffffffffffffffffffffff168473ffffffffffffffffffffffffffffffffffffffff16148061140e57508373ffffffffffffffffffffffffffffffffffffffff166113f684610490565b73ffffffffffffffffffffffffffffffffffffffff16145b8061141f575061141e8185611086565b5b91505092915050565b8273ffffffffffffffffffffffffffffffffffffffff1661144882610ab6565b73ffffffffffffffffffffffffffffffffffffffff161461149e576040517f08c379a000000000000000000000000000000000000000000000000000000000815260040161149590612d4c565b60405180910390fd5b600073ffffffffffffffffffffffffffffffffffffffff168273ffffffffffffffffffffffffffffffffffffffff16141561150e576040517f08c379a000000000000000000000000000000000000000000000000000000000815260040161150590612d8c565b60405180910390fd5b611519838383611dfe565b611524600082611291565b6001600360008573ffffffffffffffffffffffffffffffffffffffff1673ffffffffffffffffffffffffffffffffffffffff16815260200190815260200160002060008282546115749190613107565b925050819055506001600360008473ffffffffffffffffffffffffffffffffffffffff1673ffffffffffffffffffffffffffffffffffffffff16815260200190815260200160002060008282546115cb9190613026565b92505081905550816002600083815260200190815260200160002060006101000a81548173ffffffffffffffffffffffffffffffffffffffff021916908373ffffffffffffffffffffffffffffffffffffffff160217905550808273ffffffffffffffffffffffffffffffffffffffff168473ffffffffffffffffffffffffffffffffffffffff167fddf252ad1be2c89b69c2b068fc378daa952ba7f163c4a11628f55a4df523b3ef60405160405180910390a461168a838383611e03565b505050565b606060008214156116d7576040518060400160405280600181526020017f30000000000000000000000000000000000000000000000000000000000000008152509050611837565b600082905060005b600082146117095780806116f290613254565b915050600a82611702919061307c565b91506116df565b60008167ffffffffffffffff81111561174b577f4e487b7100000000000000000000000000000000000000000000000000000000600052604160045260246000fd5b6040519080825280601f01601f19166020018201604052801561177d5781602001600182028036833780820191505090505b5090505b60008514611830576001826117969190613107565b9150600a856117a5919061329d565b60306117b19190613026565b60f81b8183815181106117ed577f4e487b7100000000000000000000000000000000000000000000000000000000600052603260045260246000fd5b60200101907effffffffffffffffffffffffffffffffffffffffffffffffffffffffffffff1916908160001a905350600a85611829919061307c565b9450611781565b8093505050505b919050565b60008160405160200161184f9190612ae0565b6040516020818303038152906040528051906020012060001c9050919050565b600081600001549050919050565b60606000825114156118a057604051806020016040528060008152509050611a02565b6000604051806060016040528060408152602001613a0a60409139905060006003600285516118cf9190613026565b6118d9919061307c565b60046118e591906130ad565b67ffffffffffffffff811115611924577f4e487b7100000000000000000000000000000000000000000000000000000000600052604160045260246000fd5b6040519080825280601f01601f1916602001820160405280156119565781602001600182028036833780820191505090505b509050600182016020820185865187015b808210156119c2576003820191508151603f8160121c168501518453600184019350603f81600c1c168501518453600184019350603f8160061c168501518453600184019350603f8116850151845360018401935050611967565b50506003865106600181146119de57600281146119f1576119f9565b603d6001830353603d60028303536119f9565b603d60018303535b50505080925050505b919050565b611a21828260405180602001604052806000815250611e08565b5050565b611a2e8261121d565b611a6d576040517f08c379a0000000000000000000000000000000000000000000000000000000008152600401611a6490612e4c565b60405180910390fd5b80600660008481526020019081526020016000209080519060200190611a949291906121f7565b505050565b6001816000016000828254019250508190555050565b611b49838383604051602401611ac793929190612cee565b6040516020818303038152906040527fe3849f79000000000000000000000000000000000000000000000000000000007bffffffffffffffffffffffffffffffffffffffffffffffffffffffff19166020820180517bffffffffffffffffffffffffffffffffffffffffffffffffffffffff8381831617835250505050611dd5565b505050565b8173ffffffffffffffffffffffffffffffffffffffff168373ffffffffffffffffffffffffffffffffffffffff161415611bbd576040517f08c379a0000000000000000000000000000000000000000000000000000000008152600401611bb490612dac565b60405180910390fd5b80600560008573ffffffffffffffffffffffffffffffffffffffff1673ffffffffffffffffffffffffffffffffffffffff16815260200190815260200160002060008473ffffffffffffffffffffffffffffffffffffffff1673ffffffffffffffffffffffffffffffffffffffff16815260200190815260200160002060006101000a81548160ff0219169083151502179055508173ffffffffffffffffffffffffffffffffffffffff168373ffffffffffffffffffffffffffffffffffffffff167f17307eab39ab6107e8899845ad3d59bd9653f200f220920489ca2b5937696c3183604051611cae9190612cb1565b60405180910390a3505050565b611cc6848484611428565b611cd284848484611e63565b611d11576040517f08c379a0000000000000000000000000000000000000000000000000000000008152600401611d0890612d2c565b60405180910390fd5b50505050565b606060405180602001604052806000815250905090565b6060611d398261121d565b611d78576040517f08c379a0000000000000000000000000000000000000000000000000000000008152600401611d6f90612ecc565b60405180910390fd5b6000611d82611d17565b90506000815111611da25760405180602001604052806000815250611dcd565b80611dac8461168f565b604051602001611dbd929190612af7565b6040516020818303038152906040525b915050919050565b60008151905060006a636f6e736f6c652e6c6f679050602083016000808483855afa5050505050565b505050565b505050565b611e128383611ffa565b611e1f6000848484611e63565b611e5e576040517f08c379a0000000000000000000000000000000000000000000000000000000008152600401611e5590612d2c565b60405180910390fd5b505050565b6000611e848473ffffffffffffffffffffffffffffffffffffffff166121d4565b15611fed578373ffffffffffffffffffffffffffffffffffffffff1663150b7a02611ead611289565b8786866040518563ffffffff1660e01b8152600401611ecf9493929190612c3c565b602060405180830381600087803b158015611ee957600080fd5b505af1925050508015611f1a57506040513d601f19601f82011682018060405250810190611f1791906125a3565b60015b611f9d573d8060008114611f4a576040519150601f19603f3d011682016040523d82523d6000602084013e611f4f565b606091505b50600081511415611f95576040517f08c379a0000000000000000000000000000000000000000000000000000000008152600401611f8c90612d2c565b60405180910390fd5b805181602001fd5b63150b7a0260e01b7bffffffffffffffffffffffffffffffffffffffffffffffffffffffff1916817bffffffffffffffffffffffffffffffffffffffffffffffffffffffff191614915050611ff2565b600190505b949350505050565b600073ffffffffffffffffffffffffffffffffffffffff168273ffffffffffffffffffffffffffffffffffffffff16141561206a576040517f08c379a000000000000000000000000000000000000000000000000000000000815260040161206190612e6c565b60405180910390fd5b6120738161121d565b156120b3576040517f08c379a00000000000000000000000000000000000000000000000000000000081526004016120aa90612d6c565b60405180910390fd5b6120bf60008383611dfe565b6001600360008473ffffffffffffffffffffffffffffffffffffffff1673ffffffffffffffffffffffffffffffffffffffff168152602001908152602001600020600082825461210f9190613026565b92505081905550816002600083815260200190815260200160002060006101000a81548173ffffffffffffffffffffffffffffffffffffffff021916908373ffffffffffffffffffffffffffffffffffffffff160217905550808273ffffffffffffffffffffffffffffffffffffffff16600073ffffffffffffffffffffffffffffffffffffffff167fddf252ad1be2c89b69c2b068fc378daa952ba7f163c4a11628f55a4df523b3ef60405160405180910390a46121d060008383611e03565b5050565b6000808273ffffffffffffffffffffffffffffffffffffffff163b119050919050565b828054612203906131f1565b90600052602060002090601f016020900481019282612225576000855561226c565b82601f1061223e57805160ff191683800117855561226c565b8280016001018555821561226c579182015b8281111561226b578251825591602001919060010190612250565b5b509050612279919061227d565b5090565b5b8082111561229657600081600090555060010161227e565b5090565b60006122ad6122a884612f6c565b612f47565b9050828152602081018484840111156122c557600080fd5b6122d08482856131af565b509392505050565b60006122eb6122e684612f9d565b612f47565b90508281526020810184848401111561230357600080fd5b61230e8482856131af565b509392505050565b600081359050612325816139ad565b92915050565b60008135905061233a816139c4565b92915050565b60008135905061234f816139db565b92915050565b600081519050612364816139db565b92915050565b600082601f83011261237b57600080fd5b813561238b84826020860161229a565b91505092915050565b600082601f8301126123a557600080fd5b81356123b58482602086016122d8565b91505092915050565b6000813590506123cd816139f2565b92915050565b6000602082840312156123e557600080fd5b60006123f384828501612316565b91505092915050565b6000806040838503121561240f57600080fd5b600061241d85828601612316565b925050602061242e85828601612316565b9150509250929050565b60008060006060848603121561244d57600080fd5b600061245b86828701612316565b935050602061246c86828701612316565b925050604061247d868287016123be565b9150509250925092565b6000806000806080858703121561249d57600080fd5b60006124ab87828801612316565b94505060206124bc87828801612316565b93505060406124cd878288016123be565b925050606085013567ffffffffffffffff8111156124ea57600080fd5b6124f68782880161236a565b91505092959194509250565b6000806040838503121561251557600080fd5b600061252385828601612316565b92505060206125348582860161232b565b9150509250929050565b6000806040838503121561255157600080fd5b600061255f85828601612316565b9250506020612570858286016123be565b9150509250929050565b60006020828403121561258c57600080fd5b600061259a84828501612340565b91505092915050565b6000602082840312156125b557600080fd5b60006125c384828501612355565b91505092915050565b6000602082840312156125de57600080fd5b60006125ec848285016123be565b91505092915050565b6000806040838503121561260857600080fd5b6000612616858286016123be565b925050602083013567ffffffffffffffff81111561263357600080fd5b61263f85828601612394565b9150509250929050565b6126528161313b565b82525050565b6126618161314d565b82525050565b600061267282612fe3565b61267c8185612ff9565b935061268c8185602086016131be565b6126958161338a565b840191505092915050565b60006126ab82612fee565b6126b5818561300a565b93506126c58185602086016131be565b6126ce8161338a565b840191505092915050565b60006126e482612fee565b6126ee818561301b565b93506126fe8185602086016131be565b80840191505092915050565b60008154612717816131f1565b612721818661301b565b9450600182166000811461273c576001811461274d57612780565b60ff19831686528186019350612780565b61275685612fce565b60005b8381101561277857815481890152600182019150602081019050612759565b838801955050505b50505092915050565b600061279660328361300a565b91506127a18261339b565b604082019050919050565b60006127b960258361300a565b91506127c4826133ea565b604082019050919050565b60006127dc601c8361300a565b91506127e782613439565b602082019050919050565b60006127ff60058361301b565b915061280a82613462565b600582019050919050565b600061282260248361300a565b915061282d8261348b565b604082019050919050565b600061284560198361300a565b9150612850826134da565b602082019050919050565b6000612868605c8361301b565b915061287382613503565b605c82019050919050565b600061288b602c8361300a565b915061289682613578565b604082019050919050565b60006128ae600d8361301b565b91506128b9826135c7565b600d82019050919050565b60006128d160388361300a565b91506128dc826135f0565b604082019050919050565b60006128f4602a8361300a565b91506128ff8261363f565b604082019050919050565b600061291760298361300a565b91506129228261368e565b604082019050919050565b600061293a602e8361300a565b9150612945826136dd565b604082019050919050565b600061295d60068361301b565b91506129688261372c565b600682019050919050565b600061298060028361301b565b915061298b82613755565b600282019050919050565b60006129a360208361300a565b91506129ae8261377e565b602082019050919050565b60006129c660318361300a565b91506129d1826137a7565b604082019050919050565b60006129e9602c8361300a565b91506129f4826137f6565b604082019050919050565b6000612a0c602f8361300a565b9150612a1782613845565b604082019050919050565b6000612a2f600a8361301b565b9150612a3a82613894565b600a82019050919050565b6000612a5260058361301b565b9150612a5d826138bd565b600582019050919050565b6000612a7560218361300a565b9150612a80826138e6565b604082019050919050565b6000612a98601d8361301b565b9150612aa382613935565b601d82019050919050565b6000612abb60318361300a565b9150612ac68261395e565b604082019050919050565b612ada816131a5565b82525050565b6000612aec82846126d9565b915081905092915050565b6000612b0382856126d9565b9150612b0f82846126d9565b91508190509392505050565b6000612b2782866126d9565b9150612b3382856126d9565b9150612b3f82846126d9565b9150819050949350505050565b6000612b58828561270a565b9150612b6482846126d9565b9150612b6f826128a1565b91508190509392505050565b6000612b86826127f2565b9150819050919050565b6000612b9b82612950565b9150819050919050565b6000612bb082612a22565b9150612bbc82856126d9565b9150612bc78261285b565b9150612bd382846126d9565b9150612bde82612973565b91508190509392505050565b6000612bf582612a45565b9150819050919050565b6000612c0a82612a8b565b9150612c1682846126d9565b915081905092915050565b6000602082019050612c366000830184612649565b92915050565b6000608082019050612c516000830187612649565b612c5e6020830186612649565b612c6b6040830185612ad1565b8181036060830152612c7d8184612667565b905095945050505050565b6000604082019050612c9d6000830185612649565b612caa6020830184612ad1565b9392505050565b6000602082019050612cc66000830184612658565b92915050565b60006020820190508181036000830152612ce681846126a0565b905092915050565b60006060820190508181036000830152612d0881866126a0565b9050612d176020830185612ad1565b612d246040830184612649565b949350505050565b60006020820190508181036000830152612d4581612789565b9050919050565b60006020820190508181036000830152612d65816127ac565b9050919050565b60006020820190508181036000830152612d85816127cf565b9050919050565b60006020820190508181036000830152612da581612815565b9050919050565b60006020820190508181036000830152612dc581612838565b9050919050565b60006020820190508181036000830152612de58161287e565b9050919050565b60006020820190508181036000830152612e05816128c4565b9050919050565b60006020820190508181036000830152612e25816128e7565b9050919050565b60006020820190508181036000830152612e458161290a565b9050919050565b60006020820190508181036000830152612e658161292d565b9050919050565b60006020820190508181036000830152612e8581612996565b9050919050565b60006020820190508181036000830152612ea5816129b9565b9050919050565b60006020820190508181036000830152612ec5816129dc565b9050919050565b60006020820190508181036000830152612ee5816129ff565b9050919050565b60006020820190508181036000830152612f0581612a68565b9050919050565b60006020820190508181036000830152612f2581612aae565b9050919050565b6000602082019050612f416000830184612ad1565b92915050565b6000612f51612f62565b9050612f5d8282613223565b919050565b6000604051905090565b600067ffffffffffffffff821115612f8757612f8661335b565b5b612f908261338a565b9050602081019050919050565b600067ffffffffffffffff821115612fb857612fb761335b565b5b612fc18261338a565b9050602081019050919050565b60008190508160005260206000209050919050565b600081519050919050565b600081519050919050565b600082825260208201905092915050565b600082825260208201905092915050565b600081905092915050565b6000613031826131a5565b915061303c836131a5565b9250827fffffffffffffffffffffffffffffffffffffffffffffffffffffffffffffffff03821115613071576130706132ce565b5b828201905092915050565b6000613087826131a5565b9150613092836131a5565b9250826130a2576130a16132fd565b5b828204905092915050565b60006130b8826131a5565b91506130c3836131a5565b9250817fffffffffffffffffffffffffffffffffffffffffffffffffffffffffffffffff04831182151516156130fc576130fb6132ce565b5b828202905092915050565b6000613112826131a5565b915061311d836131a5565b9250828210156131305761312f6132ce565b5b828203905092915050565b600061314682613185565b9050919050565b60008115159050919050565b60007fffffffff0000000000000000000000000000000000000000000000000000000082169050919050565b600073ffffffffffffffffffffffffffffffffffffffff82169050919050565b6000819050919050565b82818337600083830152505050565b60005b838110156131dc5780820151818401526020810190506131c1565b838111156131eb576000848401525b50505050565b6000600282049050600182168061320957607f821691505b6020821081141561321d5761321c61332c565b5b50919050565b61322c8261338a565b810181811067ffffffffffffffff8211171561324b5761324a61335b565b5b80604052505050565b600061325f826131a5565b91507fffffffffffffffffffffffffffffffffffffffffffffffffffffffffffffffff821415613292576132916132ce565b5b600182019050919050565b60006132a8826131a5565b91506132b3836131a5565b9250826132c3576132c26132fd565b5b828206905092915050565b7f4e487b7100000000000000000000000000000000000000000000000000000000600052601160045260246000fd5b7f4e487b7100000000000000000000000000000000000000000000000000000000600052601260045260246000fd5b7f4e487b7100000000000000000000000000000000000000000000000000000000600052602260045260246000fd5b7f4e487b7100000000000000000000000000000000000000000000000000000000600052604160045260246000fd5b6000601f19601f8301169050919050565b7f4552433732313a207472616e7366657220746f206e6f6e20455243373231526560008201527f63656976657220696d706c656d656e7465720000000000000000000000000000602082015250565b7f4552433732313a207472616e736665722066726f6d20696e636f72726563742060008201527f6f776e6572000000000000000000000000000000000000000000000000000000602082015250565b7f4552433732313a20746f6b656e20616c7265616479206d696e74656400000000600082015250565b7f4649525354000000000000000000000000000000000000000000000000000000600082015250565b7f4552433732313a207472616e7366657220746f20746865207a65726f2061646460008201527f7265737300000000000000000000000000000000000000000000000000000000602082015250565b7f4552433732313a20617070726f766520746f2063616c6c657200000000000000600082015250565b7f222c20226465736372697074696f6e223a20224120636f6c6c656374696f6e2060008201527f6f66206d617468656d61746963616c20646174612e222c2022696d616765223a60208201527f2022646174613a696d6167652f7376672b786d6c3b6261736536342c00000000604082015250565b7f4552433732313a206f70657261746f7220717565727920666f72206e6f6e657860008201527f697374656e7420746f6b656e0000000000000000000000000000000000000000602082015250565b7f3c2f746578743e3c2f7376673e00000000000000000000000000000000000000600082015250565b7f4552433732313a20617070726f76652063616c6c6572206973206e6f74206f7760008201527f6e6572206e6f7220617070726f76656420666f7220616c6c0000000000000000602082015250565b7f4552433732313a2062616c616e636520717565727920666f7220746865207a6560008201527f726f206164647265737300000000000000000000000000000000000000000000602082015250565b7f4552433732313a206f776e657220717565727920666f72206e6f6e657869737460008201527f656e7420746f6b656e0000000000000000000000000000000000000000000000602082015250565b7f45524337323155524953746f726167653a2055524920736574206f66206e6f6e60008201527f6578697374656e7420746f6b656e000000000000000000000000000000000000602082015250565b7f5345434f4e440000000000000000000000000000000000000000000000000000600082015250565b7f227d000000000000000000000000000000000000000000000000000000000000600082015250565b7f4552433732313a206d696e7420746f20746865207a65726f2061646472657373600082015250565b7f45524337323155524953746f726167653a2055524920717565727920666f722060008201527f6e6f6e6578697374656e7420746f6b656e000000000000000000000000000000602082015250565b7f4552433732313a20617070726f76656420717565727920666f72206e6f6e657860008201527f697374656e7420746f6b656e0000000000000000000000000000000000000000602082015250565b7f4552433732314d657461646174613a2055524920717565727920666f72206e6f60008201527f6e6578697374656e7420746f6b656e0000000000000000000000000000000000602082015250565b7f7b226e616d65223a202200000000000000000000000000000000000000000000600082015250565b7f5448495244000000000000000000000000000000000000000000000000000000600082015250565b7f4552433732313a20617070726f76616c20746f2063757272656e74206f776e6560008201527f7200000000000000000000000000000000000000000000000000000000000000602082015250565b7f646174613a6170706c69636174696f6e2f6a736f6e3b6261736536342c000000600082015250565b7f4552433732313a207472616e736665722063616c6c6572206973206e6f74206f60008201527f776e6572206e6f7220617070726f766564000000000000000000000000000000602082015250565b6139b68161313b565b81146139c157600080fd5b50565b6139cd8161314d565b81146139d857600080fd5b50565b6139e481613159565b81146139ef57600080fd5b50565b6139fb816131a5565b8114613a0657600080fd5b5056fe4142434445464748494a4b4c4d4e4f505152535455565758595a6162636465666768696a6b6c6d6e6f707172737475767778797a303132333435363738392b2f41204d617468204e4654207769746820496420257320686173206265656e206d696e74656420746f202573a2646970667358221220ae79ab3ae893d45d51a356debff7bbc4b83e283ca5f5388bcbf7b6bec487640c64736f6c634300080100333c73766720786d6c6e733d27687474703a2f2f7777772e77332e6f72672f323030302f73766727207072657365727665417370656374526174696f3d27784d696e594d696e206d656574272076696577426f783d273020302033353020333530273e3c7374796c653e2e62617365207b2066696c6c3a2077686974653b20666f6e742d66616d696c793a2073657269663b20666f6e742d73697a653a20323470783b207d3c2f7374796c653e3c726563742077696474683d273130302527206865696768743d2731303025272066696c6c3d27626c61636b27202f3e3c7465787420783d273530252720793d273530252720636c6173733d27626173652720646f6d696e616e742d626173656c696e653d276d6964646c652720746578742d616e63686f723d276d6964646c65273e",
  "linkReferences": {},
  "deployedLinkReferences": {}
}